:10005E00E4F50A1204B27F147E0012048412000327
:10006E009021D9E4F0A3F0A3F0D2AFFF75F004EF26
:10007E00A42400F582E5F03402F583E4F075F00473
:10008E00EFA42401F582E5F03402F583E4F075F077
:10009E0004EFA42402F582E5F03402F583E4F07552
:1000AE00F004EFA42403F582E5F03402F583E4F0C6
:1000BE000FEFB480B77FC87E0012048475080275F6
:1000CE000900E4FF75F004EFA42400F582E5F03496
:1000DE0000F583747FF075F004EFA42401F582E53A
:1000EE00F03400F583747FF075F004EFA42402F56C
:1000FE0082E5F03400F583E4F075F004EFA42403F8
:10010E00F582E5F03400F583E4F00FEFB480B57FAF
:10011E00C87E001204847508007509007FC87E0031
:10012E001204847508027509007FC87E00120484CB
:10013E00E4FF75F004EFA42400F582E5F03400F539
:10014E0083747FF075F004EFA42401F582E5F0349A
:10015E0000F583E4F075F004EFA42402F582E5F0D7
:10016E003400F583747FF075F004EFA42403F58258
:10017E00E5F03400F583E4F00FEFB480B5750800B8
:10018E007509007FC87E0012048475080275090087
:10019E007FC87E00120484E4FF75F004EFA42400EF
:1001AE00F582E5F03400F583747FF075F004EFA46A
:1001BE002401F582E5F03400F583E4F075F004EFE8
:1001CE00A42402F582E5F03400F583E4F075F00422
:1001DE00EFA42403F582E5F03400F583747FF00F6D
:1001EE00EFB480B57508007509007FC87E00120453
:1001FE00847508027509007FC87E00120484750894
:10020E0000750900C3E50A648094FF40069004055A
:10021E007401F0D3E50A648094015005E49004055E
:10022E00F0900405E0FFAE0A6004150A8002050A8C
:10023E009021D9EEF0EFAF0A6004150A8002050A8C
:10024E009021DAEFF0900405E0AF0A6004150A8001
:10025E0002050A9021DBEFF07F0A7E0012048480F3
:01026E009DF2
:100003007590FF75A0FF75C0FF75B0FF7580FFE4A5
:10001300F592F594F5C2F596F5C49021D104F0A3B9
:100023007410F0A37450F07E007F008E088F098E49
:10003300C78FC6C2009021D87405F075A7FE75A6B8
:0D004300FF9021D174FDF043F740D2ED2273
:03005B0002040F8D
:10040F00C0D0C0E005A6E5A6700975A6108509C67F
:10041F008508C720002ED2AED2D0E0E0E0E0E0E0C9
:10042F00E0E0E0E0E0E0E0E0E0E0E0E0E0E0E0E0BD
:10043F00E0E0E0E0E0E0E0E0E0E0C2AE75A7FFD092
:10044F00E0D0D032E4D2AED2D093939393939393E0
:0B045F0093C2AE75A7FFD0E0D0D032F2
:1004B20075A15575A1AAE5B954F84405F5B9E4F555
:0204C200A12275
:10046A00EF4E601505A105A105A105A105A105A1EC
:0A047A0005A1EF1F70EA1E80E722C3
:10048400AD07AC06ED4C600E7FE87E0312046AED06
:070494001D70F11C80EE2237
:0804D0009021E9E04410F02244
:10037A00C29FD29EC29DC2CDC2CC43878090040048
:10038A0012034900000082E47B0AFAF9F89004009B
:10039A00E0FCA3E0FDA3E0FEA3E0FF1202AB9004A1
:1003AA0004EBF0900400E0FCA3E0FDA3E0FEA3E070
:1003BA00FFE47B0AFAF9F81202AB90040012033D3B
:1003CA00900404E0C39405401F900400E0FCA3E0FD
:1003DA00FDA3E0FEA3E02401FFE43EFEE43DFDE4CC
:1003EA003CFC90040012033DE589540F4420F58932
:1003FA0043C9A0900400A3A3A3E0F404F58DD28E10
:04040A00D299D29C15
:01040E0022CB
:0804D8003098FDC298AF992293
:0804E0008F993099FDC29922A9
:10049B0075A15575A1AAEF600543B101800353B156
:0704AB00FEE4F5A1F5FF22BC
:0304E8008FFF2261
:0A00500075A15575A1AA43B1102255
:030000000204C433
:0C04C400787FE4F6D8FD75812002005E10
:10026F0075F008758200EF2FFFEE33FECD33CDCC46
:10027F0033CCC58233C5829BED9AEC99E5829840C9
:10028F000CF582EE9BFEED9AFDEC99FC0FD5F0D6A6
:10029F00E4CEFBE4CDFAE4CCF9A88222B800C1B9D0
:1002AF000059BA002DEC8BF084CFCECDFCE5F0CB0E
:1002BF00F97818EF2FFFEE33FEED33FDEC33FCEB47
:1002CF0033FB10D703994004EB99FB0FD8E5E4F902
:1002DF00FA227818EF2FFFEE33FEED33FDEC33FCEF
:1002EF00C933C910D7059BE99A4007EC9BFCE99AE3
:1002FF00F90FD8E0E4C9FAE4CCFB2275F010EF2F28
:10030F00FFEE33FEED33FDCC33CCC833C810D70727
:10031F009BEC9AE899400AED9BFDEC9AFCE899F862
:0E032F000FD5F0DAE4CDFBE4CCFAE4C8F922F5
:0C033D00ECF0A3EDF0A3EEF0A3EFF02233
:10034900A8828583F0D083D08212036012036012E1
:100359000360120360E473E493A3C583C5F0C58306
:10036900C8C582C8F0A3C583C5F0C583C8C582C8FE
:010379002261
:00000001FF
