:0E09EA009021C1743CF09021C0E04408F0223E
:10095B00902233EFF0902232740AF0E04401F0CC95
:10096B00EACCCDE9CDEC902138F0A3EDF0D2EDC27D
:04097B00AED2AF2227
:0B09F8009021C0E054FCF0E04FF02222
:10086400E4900089F0A3F09021C4E020E7269000F2
:100874008AE004F07006900089E004F0D390008AC6
:10088400E09488900089E0941350097F017E00125F
:1008940009A280D39021C4E04480F0E4900089F060
:1008A400A3F09021C0E030E42690008AE004F070C8
:1008B40006900089E004F0D390008AE094889000C8
:0F08C40089E0941350097F017E001209A280D3AE
:0108D3002202
:100003007F0A1209F89021C4E020E72990008AE0D2
:1000130004F07006900089E004F0D390008AE09425
:1000230088900089E0941340037FFF227F017E00C4
:100033001209A280D09021C4E04480F09021C3E053
:01004300FFBD
:010044002299
:03005B0002097F18
:10097F00C0E0C083C082C2EDE5B330E50DE5B354EE
:10098F00C0700790223AE044F0F0D2EDD082D083CD
:03099F00D0E03273
:10090400454449445F446174613A200A0025303209
:100914007820000A00434849505F49443A25303260
:10092400780A004558414D204932432E2E2E0A00A4
:1006C6004100000042008100006080000100FFFF41
:1006D600FFFFFFFF0010ACC7A0494837342A1B01B3
:1006E60004A52B1878E2E8F5A2564FA1281050541D
:1006F600A54B00714F8180A9C001010101010101D3
:10070600010101302A40C86084643018501300B0DB
:10071600EC1000001E000000FF003048474A343746
:100726004147343748490A000000FC0044454C4C18
:10073600204532303136480A20000000FD00324C98
:0D0746001E5311000A20202020202000F268
:10058200E4900087F0A3F09021C274A0F09021C4FF
:10059200E020E729900088E004F07006900087E0F0
:1005A20004F0D3900088E094D0900087E094074054
:1005B200037F01227F017E001209A280D09021C414
:1005C200E04480F09021C0E030E428900088E0040C
:1005D200F07006900087E004F0900087E0FEA3E050
:1005E200FFE4FCFD7B607AEAF9F8C31204915097AC
:1005F2007F01229021C3E4F01208649021C274A109
:10060200F0120864E4900086F0120003900086E085
:100612002401F582E43400F583EFF0900086E004D3
:0E062200F0E0C3948040E27F091209F87F00E7
:0106300022A7
:0507E000900083EFF022
:1007E5001209EAE4900084F0900083E0FFA3E0C3DF
:1007F5009F506B120582EF705D90000004F0902110
:10080500C0E054F7F07B017A0079017FA012095B03
:100815007BFF7A0979041200C9E4900085F0900005
:1008250085E0FFC3948050257BFF7A097911740117
:100835002FF582E43400F583E0FF900089E4F0A30E
:10084500EFF01200C9900085E004F080D17BFF7ABB
:0E0855000979170200C9900084E004F0808A3F
:010863002272
:1008D4007F327E001209BC1200451206317BFF7A7A
:1008E400097919AFA1900089E4F0A3EFF01200C9CF
:1008F4007BFF7A0979271200C97FE81207E080FE9E
:1000450075A15575A1AAE5B954F84405F5B9E4F5C6
:02005500A122E6
:1009A200EF4E601505A105A105A105A105A105A1AF
:0A09B20005A1EF1F70EA1E80E72286
:1009BC00AD07AC06ED4C600E7FE87E031209A2ED8C
:0709CC001D70F11C80EE22FA
:080A0D009021E9E04410F02201
:10063100C29FD29EC29DC2CDC2CC4387809000830F
:100641001204B300000082E47B0AFAF9F8900083F7
:10065100E0FCA3E0FDA3E0FEA3E0FF1203FF900096
:1006610087EBF0900083E0FCA3E0FDA3E0FEA3E0B4
:10067100FFE47B0AFAF9F81203FF9000831204A742
:10068100900087E0C39405401F900083E0FCA3E045
:10069100FDA3E0FEA3E02401FFE43EFEE43DFDE412
:1006A1003CFC9000831204A7E589540F4420F5898E
:1006B10043C9A0900083A3A3A3E0F404F58DD28ED7
:0406C100D299D29C5C
:0106C5002212
:080A15003098FDC298AF992250
:080A1D008F993099FDC2992266
:1009D30075A15575A1AAEF600543B101800353B119
:0709E300FEE4F5A1F5FF227F
:030057008FFF22F6
:0A0A030075A15575A1AA43B1102298
:03000000020754A0
:0C075400787FE4F6D8FD75812102079B38
:1003C30075F008758200EF2FFFEE33FECD33CDCCF1
:1003D30033CCC58233C5829BED9AEC99E582984074
:1003E3000CF582EE9BFEED9AFDEC99FC0FD5F0D651
:1003F300E4CEFBE4CDFAE4CCF9A88222B800C1B97B
:100403000059BA002DEC8BF084CFCECDFCE5F0CBB8
:10041300F97818EF2FFFEE33FEED33FDEC33FCEBF1
:1004230033FB10D703994004EB99FB0FD8E5E4F9AC
:10043300FA227818EF2FFFEE33FEED33FDEC33FC99
:10044300C933C910D7059BE99A4007EC9BFCE99A8D
:10045300F90FD8E0E4C9FAE4CCFB2275F010EF2FD2
:10046300FFEE33FEED33FDCC33CCC833C810D707D2
:100473009BEC9AE899400AED9BFDEC9AFCE899F80D
:0E0483000FD5F0DAE4CDFBE4CCFAE4C8F922A0
:10049100EB9FF5F0EA9E42F0E99D42F0EC6480C8E2
:0604A10064809845F02282
:0C04A700ECF0A3EDF0A3EEF0A3EFF022C8
:1004B300A8828583F0D083D0821204CA1204CA12A0
:1004C30004CA1204CAE473E493A3C583C5F0C583C5
:1004D300C8C582C8F0A3C583C5F0C583C8C582C893
:0104E30022F6
:10005E00E5082489F582E43400F583E00508229052
:10006E000086300703900089E475F00112053C020A
:10007E0004E42000E97F2ED2008018EF540F249064
:10008E00D43440D4FF30040BEF24BFB41A00500315
:10009E002461FFE50960021509050CE50C700205E7
:1000AE000B30070E900086E475F00112053CEF024E
:1000BE00052A0209347403D2078003E4C207F50847
:1000CE00900086120553E4F509F50BF50CE5096071
:1000DE00077F201200A180F5750AFFC201C200C27F
:1000EE0002C203C205C206C20812006DFF700D30B7
:1000FE0007057F001200B2AF0CAE0B22B4255FC213
:10010E00D5C20412006DFF24D0B40A00501A75F047
:10011E000A780930D50508B6FF0106C6A426F620D2
:10012E00D5047002D20380D924CFB41A00EF500444
:10013E00C2E5D2040202B3D20180C6D20080C0D280
:10014E000280BCD2D580BAD20580B47F201200A125
:10015E002002077401B5090040F112005EFF120083
:10016E00A10200DBD208D206809512005EFB1200BF
:10017E005EFA12005EF94A4B700679847A037BFFB1
:10018E0020022EE509602A7E008E827583001204FD
:10019E00FD60060EEE650A70F0C2D5EBC0E0EAC057
:1001AE00E0E9C0E0EE1202FAD0E0F9D0E0FAD0E0D9
:1001BE00FB1204E4FF60AAEBC0E0EAC0E0E9C0E095
:1001CE001200A1D0E02401F9D0E03400FAD0E0FB17
:1001DE00E50A0460DCD50AD980877BFF7A0279F6BE
:1001EE00D202809C791080027908C206C20880086B
:1001FE00D2D5790A8004790AC2D5E50A047002F5CF
:10020E000AE4FAFDFEFF12005EFC7B0820011312C9
:10021E00005EFD7B1030000A12005EFE12005EFFD3
:10022E007B20EC3382D592D55013C3E43000069F69
:10023E00FFE49EFEE42001039DFDE49CFCE4CBF86C
:10024E00C201EC700CCFCECDCCE824F8F870F38060
:10025E0017C3EF33FFEE33FEED33FDEC33FCEB3320
:10026E00FB994002FB0FD8E9EB300105F8D0E0C452
:10027E0048B201C0E00AEC4D4E4F78207B0070C2B0
:10028E00EAB50A0040BCC0E01202FCD0F0D0E0207B
:10029E000104C4C0E0C4B201C0F012008AD0F0D58F
:1002AE00F0EB0200DB12055C01785301F2580149B4
:1002BE004C01454201F64F01FE4401FE49015E43E9
:0802CE0002045501E84601E8B5
:1002D6004501E84703A450014D2D01512E01742B11
:1002E600015523017220038D2A010D480000016C7F
:1002F6003F3F3F00790AA2D5200314300509B91003
:10030600020404B9080104A2D52006025001042003
:1003160002689202B509005034C0E07F203003190C
:100326007F30A20272067205500F120353C202C238
:1003360006C205C2087F30800F300503E9C0E0120F
:1003460000A1300503D0E0F9D0E0B509CC3005179F
:100356007F30B9100C1200A17F583004077F7880D7
:1003660003B908031200A13002057F2D0200A17F08
:10037600202008F87F2B2006F322920280CF286ED9
:10038600756C6C2900D20112005E3001F8C201784A
:100396000930D50108F602010D2D504349581200C7
:1003A6005E2403B405004001E490039F931200927B
:0D03B600743A120092D2037509040201F29C
:100760000208D4E493A3F8E493A34003F68001F2D3
:1007700008DFF48029E493A3F85407240CC8C3339A
:10078000C4540F4420C8834004F456800146F6DF69
:10079000E4800B01020408102040809006C6E47E2D
:1007A000019360BCA3FF543F30E509541FFEE4935E
:1007B000A360010ECF54C025E060A840B8E493A325
:1007C000FAE493A3F8E493A3C8C582C8CAC583CA50
:1007D000F0A3C8C582C8CAC583CADFE9DEE780BE08
:0107530000A5
:1004E400BB010689828A83E0225002E722BBFE0216
:0904F400E32289828A83E4932249
:1004FD00BB010CE58229F582E5833AF583E02250B4
:10050D0006E92582F8E622BBFE06E92582F8E222FD
:0D051D00E58229F582E5833AF583E4932217
:10052A00BB010689828A83F0225002F722BBFE01B0
:02053A00F322AA
:10053C00F8E0FBA3A3E0F925F0F0E5821582700248
:07054C001583E0FA38F022EC
:09055300EBF0A3EAF0A3E9F022A9
:10055C00D083D082F8E4937012740193700DA3A32E
:10056C0093F8740193F5828883E473740293686042
:06057C00EFA3A3A380DF42
:10093400EFB40A07740D12093F740A309811A8998C
:10094400B8130CC2983098FDA899C298B811F63023
:0709540099FDC299F59922FB
:00000001FF
