:100B9100A2AF9200C2AFEF54C0FFC3EE94F0400980
:100BA100EE94F450047C0480027C0875A15575A173
:100BB100AAEC42B18E858F84758F80E4F58EE5862F
:100BC10030E6107586A6E58630E1047D028006E4F4
:100BD100FD80027D0175A15575A1AAECF452B1A267
:060BE1000092AFCFEDCF42
:010BE70022EB
:100BE800A2AF9200C2AFC3EE94F04009EE94F45065
:100BF8000479048002790875A15575A1AAE942B162
:100C08008E858F84758F80CFEDCF8F8EE58630E609
:100C18001075869AE58630E1047C028006E4FC8043
:100C2800027C0175A15575A1AAE9F452B1A20092FE
:040C3800AFCFECCF7F
:010C3C002295
:0D099B00900084EBF0900082EEF0A3EFF0EE
:1009A800A2AF9200C2AFC3EE94F0400C900082E078
:1009B80094F4500479048002790875A15575A1AAA8
:1009C800E942B1900082A3E0543FFFC374409FFE08
:1009D800A3E0D39E40037FFC22ED543F6F60037F6A
:1009E800FB22900082E0F8A3E0F582888385838566
:1009F800858284900084E02F14F58FCFEDCF8F820D
:100A0800ECF583E58630E61075869AE58630E104D4
:100A18007A028006E4FA80027A0175A15575A1AAC6
:0B0A2800E9F452B1A20092AFCFEACF78
:010A330022A0
:100AC900900082EEF0A3EFF0A3EBF0A3EAF0A3E924
:010AD900F02C
:100ADA00E4FFFE900087E06E7003A3E06F60489029
:100AEA000082E0FCA3E0F5828C83E493FD9000840D
:100AFA00E0FBA3E0FAA3E0F98F828E83ED1206846D
:100B0A00900082E0B4FF0BA3E0B4FF060FBF000021
:100B1A008015900083E004F07006900082E004F0F3
:070B2A000FBF00010E80ACBB
:010B310022A1
:100C3D00A2AF9209C2AF75A15575A1AA43B104EF38
:100C4D00FB7585008B84758F80CFEDCF8F8E75866C
:100C5D0099E58630E1047E028002E4FE75A15575AA
:0C0C6D00A1AA53B1FBA20992AFCFEECFB9
:010C79002258
:100B32007585008F8475868DAF8EAE8FE4FCFD9037
:100B42000082120787900082E0FCA3E0FDA3E0FE92
:100B5200A3E0FF78101207749000821207879000BA
:100B620082E0F8A3E0F9A3E0FAA3E0FBAF84AE854C
:100B7200EB4FFFEA4EFEE9FDE8FC90008212078788
:0E0B8200900082E0FCA3E0FDA3E0FEA3E0FFF4
:010B90002242
:10088E00434849505F49443A253032780A0045586A
:10089E00414D2044617461466C6173682E2E2E0AA0
:1008AE0000526561642044617461466C6173680A2C
:1008BE0000616464723A2530347820446174613A80
:1008CE00253032780A005772697465427974652052
:1008DE0044617461466C6173683A0A002D2D2D2DAA
:1008EE002D2D2D2D2D2D2D2D20466C6173685072C2
:1008FE006F6742797465206572726F720A00577263
:10090E00697465506167652044617461466C6173FA
:10091E00683A0A002D2D2D2D2D2D2D2D2D2D2D2D01
:10092E0020466C61736850726F67427974652065FA
:10093E0072726F723A25780A00436F6E666967208D
:10094E00496E666F726D6174696F6E205265616477
:10095E002E2E2E0A007265616C206C656E3A25642F
:10096E000A006366673A2530327820253032780ADD
:10097E0000556E697175652049442E2E2E0A003081
:0D098E0078256C7820003078256C780A0000
:100368007F327E00120CBB120CE9120A347BFF7A32
:1003780008798EAFA1900085E4F0A3EFF012006E2B
:100388007BFF7A08799C12006EE4900080F0A3F05D
:10039800900080E0FEA3E0FFC39402EE9400502496
:1003A800EF7806C333CE33CED8F92400FFEE34F00D
:1003B800FE120B91900081E004F070D4900080E070
:1003C80004F080CC7E007F807D007B017A0079007C
:1003D8001207C47BFF7A0879AF12006E7B017A009E
:1003E8007900900087E4F0A37480F07F007EF0121B
:1003F8000AC9E4900080F0A3F0900080E0FEA3E03A
:10040800FFC39480EE940050347BFF7A0879BF9044
:100418000085EEF0A3EFF02400F58274003EF5832A
:10042800E0FF900087E4F0A3EFF012006E900081E7
:10043800E004F070C4900080E004F080BC7BFF7A98
:100448000879D412006EE4900080F0A3F090008048
:10045800E0FCA3E0FD2400FFEC34F0FEED120BE815
:10046800EF60097BFF7A0879EA12006E900081E05C
:1004780004F07006900080E004F0C3900081E094DE
:1004880080900080E0940040C47E007F807D007BE7
:10049800017A0079001207C47BFF7A0879AF12004D
:1004A8006E7B017A007900900087E4F0A37480F0F5
:1004B8007F007EF0120AC9E4900080F0A3F090005B
:1004C80080E0FEA3E0FFC39480EE940050347BFFED
:1004D8007A0879BF900085EEF0A3EFF02400F5824A
:1004E80074003EF583E0FF900087E4F0A3EFF0127C
:1004F800006E900081E004F070C4900080E004F089
:1005080080BCE4900080F0A3F0900080E0FEA3E0BF
:10051800FFC39402EE94005024EF7806C333CE3321
:10052800CED8F92400FFEE34F0FE120B9190008132
:10053800E004F070D4900080E004F080CC7BFF7A77
:1005480009790C12006E7E007F407D5A7B017A008B
:1005580079001207C47C007D007B407F007EF0128A
:10056800099BEF60097BFF7A09792212006E7E00F1
:100578007F807D007B017A0079001207C47BFF7AB7
:100588000879AF12006E7B017A007900900087E449
:10059800F0A37480F07F007EF0120AC9E490008016
:1005A800F0A3F0900080E0FEA3E0FFC39480EE94F7
:1005B8000050347BFF7A0879BF900085EEF0A3EFF6
:1005C800F02400F58274003EF583E0FF900087E494
:1005D800F0A3EFF012006E900081E004F070C49078
:1005E8000080E004F080BC7BFF7A09794712006E36
:1005F8007B017A007900900087E4F0A37402F07F11
:10060800FE7EFF120AC9900080E4F0A3EFF07BFFA2
:100618007A097963900080E0FFA3E0900085CFF02D
:10062800A3EFF012006E7BFF7A097970900001E069
:10063800FF900085E4F0A3EFF0900000E0FF900049
:1006480087E4F0A3EFF012006E7BFF7A09797F123E
:10065800006E7F14120B329000851207877BFF7A99
:1006680009798D12006E7F10120B329000851207E7
:0C067800877BFF7A09799412006E80FEE7
:100CE90075A15575A1AAE5B954F84405F5B9E4F516
:020CF900A12236
:100CA100EF4E601505A105A105A105A105A105A1AD
:0A0CB10005A1EF1F70EA1E80E72284
:100CBB00AD07AC06ED4C600E7FE87E03120CA1ED88
:070CCB001D70F11C80EE22F8
:080D11009021E9E04410F022FA
:100A3400C29FD29EC29DC2CDC2CC43878090008209
:100A440012079300000082E47B0AFAF9F89000820E
:100A5400E0FCA3E0FDA3E0FEA3E0FF1206E29000A9
:100A640086EBF0900082E0FCA3E0FDA3E0FEA3E0AF
:100A7400FFE47B0AFAF9F81206E290008212078773
:100A8400900086E0C39405401F900082E0FCA3E040
:100A9400FDA3E0FEA3E02401FFE43EFEE43DFDE40B
:100AA4003CFC900082120787E589540F4420F589A5
:100AB40043C9A0900082A3A3A3E0F404F58DD28ED1
:040AC400D299D29C55
:010AC800220B
:080D19003098FDC298AF992249
:080D21008F993099FDC299225F
:100CD20075A15575A1AAEF600543B101800353B117
:070CE200FEE4F5A1F5FF227D
:030D29008FFF2217
:0A0D070075A15575A1AA43B1102291
:03000000020CFBF4
:0C0CFB00787FE4F6D8FD758121020368C3
:10068400F8BB010DE58229F582E5833AF583E8F0AC
:10069400225006E92582C8F622BBFE05E92582C858
:0206A400F22240
:1006A60075F008758200EF2FFFEE33FECD33CDCC0B
:1006B60033CCC58233C5829BED9AEC99E58298408E
:1006C6000CF582EE9BFEED9AFDEC99FC0FD5F0D66B
:1006D600E4CEFBE4CDFAE4CCF9A88222B800C1B995
:1006E6000059BA002DEC8BF084CFCECDFCE5F0CBD3
:1006F600F97818EF2FFFEE33FEED33FDEC33FCEB0C
:1007060033FB10D703994004EB99FB0FD8E5E4F9C6
:10071600FA227818EF2FFFEE33FEED33FDEC33FCB3
:10072600C933C910D7059BE99A4007EC9BFCE99AA7
:10073600F90FD8E0E4C9FAE4CCFB2275F010EF2FEC
:10074600FFEE33FEED33FDCC33CCC833C810D707EC
:100756009BEC9AE899400AED9BFDEC9AFCE899F827
:0E0766000FD5F0DAE4CDFBE4CCFAE4C8F922BA
:10077400E8600FEFC333FFEE33FEED33FDEC33FCE3
:03078400D8F12287
:0C078700ECF0A3EDF0A3EEF0A3EFF022E5
:10079300A8828583F0D083D0821207AA1207AA12F7
:1007A30007AA1207AAE473E493A3C583C5F0C5831C
:1007B300C8C582C8F0A3C583C5F0C583C8C582C8B0
:0107C3002213
:10000300E5082485F582E43400F583E005082290B1
:100013000082300703900085E475F001120848025E
:1000230007F02000E97F2ED2008018EF540F2490B0
:10003300D43440D4FF30040BEF24BFB41A00500370
:100043002461FFE50960021509050CE50C70020542
:100053000B30070E900082E475F001120848EF029E
:100063000836020C7A7403D2078003E4C207F5084A
:1000730090008212085FE4F509F50BF50CE50960C1
:10008300077F2012004680F5750AFFC201C200C235
:1000930002C203C205C206C208120012FF700D306D
:1000A30007057F00120057AF0CAE0B22B4255FC2C9
:1000B300D5C204120012FF24D0B40A00501A75F0FE
:1000C3000A780930D50508B6FF0106C6A426F6202E
:1000D300D5047002D20380D924CFB41A00EF5004A0
:1000E300C2E5D204020258D20180C6D20080C0D237
:1000F3000280BCD2D580BAD20580B47F20120046DC
:100103002002077401B5090040F1120003FF120039
:1001130046020080D208D2068095120003FB12002B
:1001230003FA120003F94A4B700679297A037BFF1D
:1001330020022EE509602A7E008E82758300120854
:100143000960060EEE650A70F0C2D5EBC0E0EAC0A6
:10015300E0E9C0E0EE12029FD0E0F9D0E0FAD0E08F
:10016300FB1207F0FF60AAEBC0E0EAC0E0E9C0E0E1
:10017300120046D0E02401F9D0E03400FAD0E0FBCD
:10018300E50A0460DCD50AD980877BFF7A02799B74
:10019300D202809C791080027908C206C2088008C6
:1001A300D2D5790A8004790AC2D5E50A047002F52A
:1001B3000AE4FAFDFEFF120003FC7B082001131280
:1001C3000003FD7B1030000A120003FE120003FF40
:1001D3007B20EC3382D592D55013C3E43000069FC5
:1001E300FFE49EFEE42001039DFDE49CFCE4CBF8C8
:1001F300C201EC700CCFCECDCCE824F8F870F380BC
:1002030017C3EF33FFEE33FEED33FDEC33FCEB337B
:10021300FB994002FB0FD8E9EB300105F8D0E0C4AD
:1002230048B201C0E00AEC4D4E4F78207B0070C20B
:10023300EAB50A0040BCC0E01202A1D0F0D0E02031
:100243000104C4C0E0C4B201C0F012002FD0F0D545
:10025300F0EB020080120868011D5301975800EE6D
:100263004C00EA42019B4F01A34401A3490103430C
:0802730001A955018D46018D22
:10027B0045018D4703495000F22D00F62E01192B35
:10028B0000FA2301172003322A00B24800000111A3
:10029B003F3F3F00790AA2D5200314300509B9105E
:1002AB00020404B9080104A2D5200602500104205F
:1002BB0002689202B509005034C0E07F2030031968
:1002CB007F30A20272067205500F1202F8C202C2F0
:1002DB0006C205C2087F30800F300503E9C0E0126B
:1002EB000046300503D0E0F9D0E0B509CC30051756
:1002FB007F30B9100C1200467F583004077F78808E
:10030B0003B908031200463002057F2D0200467F19
:10031B00202008F87F2B2006F322920280CF286E34
:10032B00756C6C2900D2011200033001F8C2017800
:10033B000930D50108F60200B22D5043495812007E
:10034B00032403B405004001E490034493120037E7
:0D035B00743A120037D203750904020197AD
:1007C400EF4E6012EF60010EEDBB010B89828A834C
:1007D400F0A3DFFCDEFA2289F05007F709DFFCA959
:0C07E400F022BBFEFCF309DFFCA9F022B0
:1007F000BB010689828A83E0225002E722BBFE0207
:09080000E32289828A83E4932239
:10080900BB010CE58229F582E5833AF583E02250A4
:1008190006E92582F8E622BBFE06E92582F8E222EE
:0D082900E58229F582E5833AF583E4932208
:10083600BB010689828A83F0225002F722BBFE01A1
:02084600F3229B
:10084800F8E0FBA3A3E0F925F0F0E5821582700239
:070858001583E0FA38F022DD
:09085F00EBF0A3EAF0A3E9F0229A
:10086800D083D082F8E4937012740193700DA3A31F
:1008780093F8740193F5828883E473740293686033
:06088800EFA3A3A380DF33
:100C7A00EFB40A07740D120C85740A309811A899FA
:100C8A00B8130CC2983098FDA899C298B811F630DA
:070C9A0099FDC299F59922B2
:00000001FF
