:1017DB00537461727420404368697049443D2530ED
:1017EB0032580A0057616974204465766963652035
:1017FB00496E0A00456E756D416C6C526F6F744487
:10180B00657620657272203D20253032580A004DD6
:10181B006F75736520646174613A200078253032EE
:10182B005820000A004D6F757365206572726F72D8
:10183B0020253032780A004D6F757365206E6F204E
:10184B00696E7465727275707420656E64706F6901
:04185B006E740A009D
:10119200121C961216B47BFF7A1779DBAFA190016D
:1011A2005EE4F0A3EFF012067B121ABEC2097BFFC7
:1011B2007A1779EF12067BE4900140F030D80FC223
:1011C200D81218C6900140EFF0BF1502D2092009CB
:1011D20007900140E0B41526C2097FC87E00121CA8
:1011E2003C121B99900140EFF060137BFF7A177954
:1011F200FFE0FF90015EE4F0A3EFF012067B7F6454
:101202007E00121C3C7F3312185FAD07AC06EDF472
:101212007002ECF460A1EC90013FF0900141EFF01C
:10122200121919900141E0601175F00CA4247DF5AA
:1012320082E43400F583E0FF800590013AE0FF90FC
:101242000142EFF0540F7003021304E0FE547F4496
:1012520090FFEE30E7047DC080027D00E4FBFA12CD
:1012620015D5900140EFF060030212EB900142E0CD
:101272006480F0900141E0FF6015A3E0FEEF75F09D
:101282000CA4247DF582E43400F583EEF08008900E
:101292000142E090013AF0900141E5DBF0E0606B41
:1012A2007BFF7A18791A12067BE490013FF09001D5
:1012B20041E0FF90013FE0FEC39F50257BFF7A187B
:1012C200792774002EF582E43400F583E0FF900163
:1012D2005EE4F0A3EFF012067B90013FE004F080A1
:1012E200CD7BFF7A18792E801F900140E0FF642A9F
:1012F20060197BFF7A18793090015EE4F0A3EFF079
:1013020080067BFF7A18794212067B7F01121CA8A5
:031312000211B90C
:100C78005553422064657620696E0A005553422018
:100C8800646576206F75740A005345545F504F525F
:100C98005420202530325820202530325820002575
:100CA80030327820000A005265736574205553422B
:100CB80020506F72740A0044697361626C65207514
:100CC800736220706F72742062656361757365204A
:100CD8006F6620646973636F6E6E6563740A00479C
:100CE800657444657644657363723A2000782530EC
:100CF8003258200047657443666744657363723AE7
:100D080020005553422D4469736B20526561647904
:100D18000A005553422D5072696E74204F4B0A00D9
:100D28005553422D5072696E742052656164790A78
:100D380000416E616C797A65486964496E74456EE4
:100D4800647020253032780A004374726C536574DD
:100D5800557362436F6E66696720253032780A00E2
:100D68004765744849445265706F72743A2000555B
:100D780053425F4445565F434C4153535F4849448F
:100D88002052656164790A005553422D4B6579629A
:100D98006F6172642052656164790A005553422D6F
:100DA8004D6F7573652052656164790A00476574F3
:100DB80048756244657363723A004578742D4855E6
:100DC8004220506F72745F2531642320706F7765FD
:100DD80072206F6E206572726F720A0064765F63AC
:100DE8006C7320253032780A0069665F636C732063
:100DF800253032780A0069665F737562636C732008
:100E0800253032780A002530327820253032780AA9
:100E180000496E6974526F6F74446576204572722A
:100E2800203D20253032580A00456E756D555342D5
:100E38004465760A00800600010000120080060062
:100E48000200000400000502000000000000090084
:100E58000000000000010B0000000000000201007B
:100E68000000000000A006002900000900210A0077
:100E78000000000000810600220000FF00A1000021
:100E8800000000F103C033000000000200403500FC
:100E98000000000000000410232735435743480092
:100EA8005743485541525444656D6F005743482095
:100EB8004163636573736F7279205465737400318D
:100EC8002E3000687474703A2F2F7763682E636E23
:100ED800005743484163636573736F72793100400B
:100EE800340000000004004034000001000C004001
:100EF80034000002001300403400000300040040E6
:0F0F080034000004000E004034000005000E000D
:081CD800E4900132F0A3F022B8
:1018C600E490015AF0E5DA30E025900132E0600557
:1018D600E5D120E038121CD89001327401F07BFF6C
:1018E6007A0C797812067B90015A7415F0801E9056
:1018F6000132E0C394014015121CD87BFF7A0C79A3
:101906008412067B90015AE070037416F090015A17
:02191600E0FFF0
:0119180022AC
:0C1CB600EF547FFFE5E354804FF5E3227C
:0E1CA800EF600753E2BF53D27F2243E2402297
:10196C009000807408F07E007F0D7D007B017A0171
:10197C007932120C06E4FF121CB653D1FE7F011211
:10198C001CA8E5D154FB4402F5D17F147E00121C37
:10199C003C53D1FDE5DA30E0FB7F017E00121C3CAC
:0319AC00C2D8227C
:1019EA00900132E0C3940150037401F0E5DA30E06B
:1019FA0023E5D120E015E5DA30E1047F0080027F9B
:101A0A0001900134EFF0700343D10475D24043D101
:071A1A00017F00227F16226C
:10191900AE07EE603F75F00CA42476F582E434003E
:10192900F583E0FF121CB6EE75F00CA42477F5825E
:10193900E43400F583E0FF121CA8EE75F00CA42432
:1019490077F582E43400F583E0701743D2807F6431
:10195900FE021C0B900133E0FF121CB6A3E0FF123C
:031969001CA82295
:101BF1007F907E0120D909EF1F70011EEF4E70F416
:091C010030D9047F0080027FFE4F
:011C0A0022B7
:0B15D500900157EFF0A3EAF0A3EBF049
:1015E000AF058FD68FD4E4F5DD900157E0F5D5C275
:1015F000D97F907E0120D909EF1F70011EEF4E7038
:10160000F4E4F5D520D9037FFE2230D823C2D812C6
:1016100018C6EFB41502D209900132E0FE70037FC4
:101620001622EEB401037F15227FC87E00121C0B28
:1016300030D96730DE037F0022E5D9540FFFB40EA6
:10164000028043EFB40A29900158E0FCA3E0FD4C6E
:101650007003EF803EC3ED94FFEC94FF500E9001B9
:1016600059E024FFF0900158E034FFF015DD802DA3
:10167000900157E0C4540F24F7600D24FC6004244B
:101680000C7014EF6017800BEFB40304640B600D53
:10169000EF600A4420FF227FFE2275D8FF7F0F7E75
:1016A00000121C0B05DDAFDDEFC3940350030215E0
:0316B000E97F20AF
:0116B3002214
:100F1700121B7990014BE0900044F07E007FB27D78
:010F27004C7D
:100F2800E490014DF0A3F0AA06A9077B01900151B6
:100F380004F0A3EAF0A3E9F0AF05A9071BA3EBF0BF
:100F4800A3F0A3E9F07FC87E00121C0B900154E0C7
:100F5800FBA3E0FAA3E0F9EA494B6004E4120AD3E0
:100F680075D7087B107A27E4FD7FD01215D590013C
:100F78004FEFF06003E0FF2275D6D075D4D075D757
:100F880001900047E0FE900046E0FDEDFF90014D26
:100F9800EEF0A3EFF04E700302115F900151E0FBF9
:100FA800A3E0FAA3E0F9EA494B700302115F90004D
:100FB80040E020E70302107090014DE07002A3E0CA
:100FC800700302106A7FC87E00121C0B7B107A2700
:100FD800ADD47F901215D590014FEFF0E0FF60017E
:100FE80022AFDB90014DE0FCA3E0FDD39FEC940021
:100FF8004004AFDB8002AF05900150EFF0E0FFC383
:1010080090014EE09FF090014DE09400F090015463
:10101800E0FBA3E0FAA3E0F9EA494B6004EF120A07
:10102800B1E4FF900150E06F602874002FF582E46E
:101038003400F583E0FE900151E0FBA3E0FAA3E061
:10104800F9EE120AD3900152E475F001120AE50F85
:1010580080D1E5DB600C900080E01455DB70030262
:101068000FC0E4F5D702115F90014DE07002A3E0D4
:10107800700302115F7FC87E00121C0B900080E095
:10108800FFFD90014DE0FAA3E0FBC39DEA94004008
:10109800028002AF038FD7900151E0FBA3E0FAA3CF
:1010A800E0F9900001120A84640970379000B1E0F9
:1010B8006401F0120AD3900151E0FBA3E0FAA3E027
:1010C800F9120A6BFF90015EE4F0A3EFF09000B113
:1010D800E0FF900160E4F0A3EFF07BFF7A0C7991D8
:1010E80012067BE4FFEF65D76028900151E0FBA36F
:1010F800E0FAA3E0F9120A6BFE74402FF582E4349B
:1011080000F583EEF0900152E475F001120AE50F44
:1011180080D37B107A27ADD67F101215D590014F5A
:10112800EFF0E0FF600122AFD7C390014EE09FF0DF
:1011380090014DE09400F0900154E0FBA3E0FAA385
:10114800E0F9EA494B7003021070900154A3A3E53B
:10115800D7120AB10210707FC87E00121C0BE5D7A7
:1011680060047F9080027F107B107A277DC0121563
:10117800D590014FEFF06003E0FF22E5D77002FF42
:0911880022E5DB7002FF227F1753
:01119100223B
:101B7900E4FD8F828E83E493FC74402DF582E43476
:0F1B890000F583ECF00FBF00010E0DEDB408E383
:011B9800222A
:101A21009000807408F07E0E7F3D121B797E007F4E
:101A3100B27D4B120F28EF6001229000B9E09000B7
:101A410080F0900E43E493FF90014BE0C39F50035D
:051A51007F17227F0059
:011A5600226D
:1019AF007E0E7F45121B797E007FB27D4B120F2872
:1019BF00EF6001229000B4E090014BF07E0E7F4566
:1019CF00121B7990014BE0900046F07E007FB27DB4
:0A19DF004B120F28EF6001227F0079
:0119E90022DB
:051A8D0090014BEFF099
:101A92007E0E7F4D121B7990014BE0900042F0E4E4
:101AA200FDFFFE120F28EF60012290014BE0FF12B2
:0B1AB2001CB67F0A7E00121C3C7F0067
:011ABD002206
:051BD600900146E0FF54
:101BDB00AB077E0E7F55121B79900042EBF0E4FDB4
:061BEB00FFFE120F28228C
:101C6A00AB077E0E7F65121B79900044EBF0E4FD12
:061C7A00FFFE120F2822FC
:101C8000AB077E0E7F5D121B79900042EBF0E4FD06
:061C9000FFFE120F2822E6
:051BB80090014BEFF06D
:101BBD007E0E7F75120F17EF6001227E0E7F7D1254
:081BCD000F17EF6001227F00F9
:011BD50022ED
:101B11007E0E7F6D121B797E007FB27D08120F2829
:101B2100EF600122900E73E493FFE508C39F500319
:051B31007F17227F0078
:011B3600228C
:101A570090004074A3F0A3E4F0A3F0A3F0A3EFF089
:101A6700A3E4F0A37404F0A3E4F07E007FB27D85C5
:101A7700120F28EF600122900185E0C39404500300
:051A87007F17227F0023
:011A8C002237
:101B37009000407423F0A37403F0A3EDF0A3E4F046
:101B4700A3EFF0A3E4F0A3F0A3F0FDFFFE120F282C
:011B5700226B
:101B58009000407423F0A37401F0A3EDF0A3E4F027
:101B6800A3EFF0A3E4F0A3F0A3F0FDFFFE120F280B
:011B7800224A
:101C25007E0E7F85121B797E007FB27D4B120F28B9
:061C3500EF6001227F00B8
:011C3B002286
:0B14890090014BEEF0A3EFF0A3EDF09C
:10149400E490014FF0ED7E007F04601EC006C0079B
:1014A4007D0090014DE075F00CA4247DF9740035A5
:1014B400F0FA7B01D007D00680087D007B017A0119
:1014C400793A120C06E490014EF090014BE0FEA331
:1014D400E0FFF5828E83A3A3E0FD90014EE0FCC300
:1014E4009D40030215C6EF2CF582E43EF583A3E08C
:1014F4006405600302159B90014BA3E02CF582E484
:101504003EF583A3A3A3E054036403600302159B85
:10151400EF2CF582E43EF583A3A3E0FD30E7789059
:10152400014DE0FC6025ED540FFD90014FE0FBEC14
:1015340075F00CA4247DF582E43400F583E5822B58
:10154400F582E43583F583EDF0802090014EE02FA1
:10155400F582E43EF583A3A3E0540FFF90014FE02E
:10156400243AF582E43401F583EFF07BFF7A0C79B9
:10157400A790014FE0243AF582E43401F583E0FFBB
:1015840090015EE4F0A3EFF012067B90014FE004BB
:10159400F0E0C39404502B90014EE0FF90014BE027
:1015A400FCA3E02FF582E43CF583E0900150F0D3F6
:1015B4009410500E900150E0FF90014EE02FF00285
:1015C40014CE7BFF7A0C79AD12067B90014FE0FFBD
:0115D40022F4
:0B13150090014BEEF0A3EFF0A3EDF011
:10132000E4A3F0A37402F0ED7E007F04601EC0060B
:10133000C0077D0090014DE075F00CA4247DF97488
:101340000035F0FA7B01D007D00680087D007B01D4
:101350007A01793A120C06E4FF90014BE0FCA3E01D
:10136000FDF5828C83A3A3E0FEEFC39E400302142D
:1013700086ED2FF582E43CF583A3E064056003026B
:10138000146590014BA3E02FF582E43CF583A3A301
:10139000A3E054036402600302146590014DE0FE73
:1013A000606AED2FF582E43CF583A3A3E030E726E5
:1013B000540FFD90014EE0FC04F0EE75F00CA424F7
:1013C0007DF582E43400F583E5822CF582E43583F3
:1013D000F583EDF0807B90014BE0FCA3E02FF582DC
:1013E000E43CF583A3A3E0540FFE90014FE0FD041D
:1013F000F090014DE075F00CA4247DF582E43400FA
:10140000F583E5822DF582E43583804190014BE040
:10141000FCA3E0FD2FF582E43CF583A3A3E030E7D5
:101420000F540FFE90014EE0FB04F0743A2B80182D
:10143000ED2FF582E43CF583A3A3E0540FFE900169
:101440004FE0FD04F0743A2DF582E43401F583EEAB
:10145000F090014EE0B402037401F090014FE0B44B
:1014600004037403F090014BE0FCA3E02FF582E449
:101470003CF583E0900150F0D39410500990015056
:08148000E02FFF0213597F0069
:011488002241
:101749007E0E7F8D121B797E007FB27D83120F285A
:10175900EF6001229000B2E0C3940250037F41225E
:10176900E4900184F0900184E0FEC39406504CEEAD
:10177900900E9D93FBEE75F008A424E7F582E434FE
:101789000EAF82FE121B79900047E0FE900046E002
:10179900FDEDFF74A42BF9E4340EFA7BFF78B27CDB
:1017A900007D01120A457E007FB27D83120F28EF6A
:1017B900600122900184E004F080AA7E0E7F9512D8
:1017C9001B797E007FB27D83120F28EF6001227F93
:0117D900000F
:0117DA0022EC
:10000300E490014AF0900143F07BFF7A0C79AF1240
:10001300067BE4900144F0900143E0FFA3E0C39F1B
:10002300501E7F647E00121C3C900143E0D3940A6F
:100033004006900145E0FF22900144E004F080D7A0
:1000430012196CE4900144F0A3F07F017E00121CAE
:100053003C1219EAEF7021900144F0A3E004F09000
:100063000143E02414FFE433FE900145E0D39FEE07
:100073006480F8748098500C900144E004F0E0C36D
:10008300946440C6900144E0600F121CD87BFF7A51
:100093000C79BF12067B7F1622E4FF1219197BFF2E
:1000A3007A0C79E712067B121A21900145EFF06072
:1000B300030205E6900144F0900E43E493FF9001A0
:1000C30044E0FEC39F50257BFF7A0C79F574B22E72
:1000D300F582E43400F583E0FF90015EE4F0A3EFE2
:1000E300F012067B900144E004F080CC7BFF7A0C95
:1000F30079AD12067B9000BBE0FE9000BAE07C0075
:100103002400FFEC3E900136F0A3EFF09000BDE039
:10011300FE9000BCE02400FFEC3E900138F0A3EF1A
:10012300F09000B6E0900147F0900E4FE493FF1279
:100133001A8D900145EFF060030205E6900E4F9390
:10014300900133F07BFF7A0C79FC12067B1219AF16
:10015300900145EFF060030205E69000B7E09001DF
:1001630046F09000B6E0900149F0E4900144F0902D
:1001730000B4E0FF900144E0FEC39F50257BFF7A6B
:100183000C79F574B22EF582E43400F583E0FF9028
:10019300015EE4F0A3EFF012067B900144E004F06B
:1001A30080CD7BFF7A0C79AD12067B9000C0E09086
:1001B3000148F0900147E0706CA3E0640870667E2C
:1001C300007FB2FD121315E4900144F0900144E066
:1001D300FF640460257BFF7A0C79A7743A2FF582BC
:1001E300E43401F583E0FF90015EE4F0A3EFF01245
:1001F300067B900144E004F080D27BFF7A0C79AD5A
:1002030012067B121BD6900145EFF060030205E650
:100213009001327403F09001357408F07BFF7A0D7E
:10022300790A02041F900147E060030202EDA3E094
:10023300640760030202ED9000C1E0640160030201
:1002430002ED7BFF7A0D791A12067B9000C5E0FF61
:10025300B4050BA3E0FE600690013AF0801CEFB4F6
:1002630005189000C6E0FF7C0060047D0180027DDC
:1002730000ED4C700590013BEFF09000CCE0FFB433
:1002830005109000C6E0600A9000CDE090013AF0BE
:10029300801EEFB4051A9000C6E07E0060047F0163
:1002A30080027F00EF4E70089000CDE090013BF09C
:1002B300121BD6900145EFF060030205E6A3E0FFB1
:1002C300121C80900145EFF0121C25900145EFF0C0
:1002D30060030205E69001327403F0900135740760
:1002E300F07BFF7A0D792802041F900147E0600339
:1002F30002042EA3E06403600302042E9000C1E015
:10030300D39401400302042E7E007FB2E4FD121455
:1003130089900145EFF07BFF7A0D793990015EE416
:10032300F0A3EFF012067B9000C2E0900148F07B4F
:10033300FF7A0D7951900146E0FF90015EE4F0A34E
:10034300EFF012067B121BD6900145EFF06003021B
:1003530005E67BFF7A0D796812067BE4900147F08E
:10036300900149E0FE900147E0FFC39E504E121BEF
:10037300B8900145EFF0703C900144F0900144E0E7
:10038300FFC3944050257BFF7A0C79F574B22FF5A7
:1003930082E43400F583E0FF90015EE4F0A3EFF024
:1003A30012067B900144E004F080D17BFF7A0C7944
:1003B300AD12067B900147E004F080A490013274F3
:1003C30003F0900148E0640170269001357423F036
:1003D300900149E0D39401400F7BFF7A0D797712A6
:1003E300067B9001357403F07BFF7A0D7990802CA6
:1003F300900148E06402702A9001357433F0900153
:1004030049E0D39401400F7BFF7A0D797712067B85
:100413009001357403F07BFF7A0D79A412067B02F9
:10042300052490014574FBF00205E6900147E06462
:1004330009600302052B7E007FB2FD12148990012F
:1004430045EFF07BFF7A0D793990015EE4F0A3EF7D
:10045300F012067B7BFF7A0D79B512067B121B1116
:10046300900145EFF060030205E6900144F090002F
:10047300B2E0FF900144E0FEC39F50257BFF7A0C5E
:1004830079F574B22EF582E43400F583E0FF900130
:100493005EE4F0A3EFF012067B900144E004F080E9
:1004A300CD7BFF7A0C79AD12067B9000B4E090010E
:1004B3003EF0D3940440037404F0121BD69001451C
:1004C300EFF060030205E69001327403F09001350A
:1004D3007409F09001447401F090013EE0FF900133
:1004E30044E0D39F503BE0FF75F00CA42475F582E4
:1004F300E43400F583E4F07D08121B37900145EFE7
:10050300F060167BFF7A0D79C2900144E0FF900101
:100513005EE4F0A3EFF012067B900144E004F08068
:10052300B87F01121CA81F227BFF7A0D79E490018A
:1005330047E0FF90015EE4F0A3EFF012067B7BFF40
:100543007A0D79F1900148E0FF90015EE4F0A3EFAA
:10055300F012067B7BFF7A0D79FE9000C1E0FF90DD
:10056300015EE4F0A3EFF012067B7E007FB2E4FDB0
:10057300121315E4900144F0900144E0FF64046019
:10058300257BFF7A0C79A7743A2FF582E43401F5C1
:1005930083E0FF90015EE4F0A3EFF012067B90018D
:1005A30044E004F080D27BFF7A0C79AD12067B1213
:1005B3001BD6900145EFF0702A7BFF7A0E790E90DF
:1005C3000136E0FFA3E090015ECFF0A3EFF09001CE
:1005D30038E0FFA3E0900160CFF0A3EFF012067BB9
:1005E3007F00227BFF7A0E7919900145E0FF90018D
:1005F3005EE4F0A3EFF012067B9001327402F07F09
:0D06030001121CA8900143E004F002001554
:101B99007BFF7A0E793112067B900132E0B4010C99
:0E1BA900120003780EEFF66003E6FF227F00C5
:011BB700220B
:10185F00E4F9900135E064097043900132E0C394DC
:10186F0003403A7D0190013EE0FEEDD39E502EEDF8
:10187F0075F00CA42478F582E43400F583E06F70E2
:10188F0019ED75F00CA42475F582E43400F583E0AE
:10189F00C394034005E9FEEDFF220D80C89001358A
:1018AF00E0B5070E900132E0C394034005E97F00D5
:0618BF00FE227EFF7FFF08
:0118C5002200
:101ABE00C2EAE4F5E39021E17448F075E50075E4BF
:101ACE000075E70075E640E4F5D4F5D675E2887545
:0C1ADE00D8FF121CD89021E27403F02203
:101C960075A15575A1AAE5B954F84405F5B9E4F559
:021CA600A12279
:101C0B00EF4E601505A105A105A105A105A105A133
:0A1C1B0005A1EF1F70EA1E80E7220A
:101C3C00AD07AC06ED4C600E7FE87E03121C0BED7D
:071C4C001D70F11C80EE2267
:081CE0009021E9E04410F0221C
:1016B400C29FD29EC29DC2CDC2CC438780900143BB
:1016C400120BD500000082E47B0AFAF9F89001437A
:1016D400E0FCA3E0FDA3E0FEA3E0FF120B379001C2
:1016E40047EBF0900143E0FCA3E0FDA3E0FEA3E0A0
:1016F400FFE47B0AFAF9F8120B37900143120BC985
:10170400900147E0C39405401F900143E0FCA3E02F
:10171400FDA3E0FEA3E02401FFE43EFEE43DFDE47E
:101724003CFC900143120BC9E589540F4420F58910
:1017340043C9A0900143A3A3A3E0F404F58DD28E82
:04174400D299D29CC8
:01174800227E
:081CE8003098FDC298AF99226B
:081CF0008F993099FDC2992281
:101C530075A15575A1AAEF600543B101800353B186
:071C6300FEE4F5A1F5FF22EC
:031CF8008FFF2239
:0A1CCE0075A15575A1AA43B11022BB
:03000000021CC21D
:0C1CC200787FE4F6D8FD758121021192B4
:10097500E709F608DFFA8046E709F208DFFA803E64
:1009850088828C83E709F0A3DFFA8032E309F60851
:10099500DFFA8078E309F208DFFA807088828C83B9
:1009A500E309F0A3DFFA806489828A83E0A3F6086D
:1009B500DFFA805889828A83E0A3F208DFFA804C47
:1009C50080D280FA80C680D4806980F2803380101E
:1009D50080A680EA809A80A880DA80E280CA803387
:1009E50089828A83ECFAE493A3C8C582C8CCC583FF
:1009F500CCF0A3C8C582C8CCC583CCDFE9DEE780CF
:100A05000D89828A83E493A3F608DFF9ECFAA9F04D
:100A1500EDFB2289828A83ECFAE0A3C8C582C8CCA3
:100A2500C583CCF0A3C8C582C8CCC583CCDFEADEBC
:100A3500E880DB89828A83E493A3F208DFF980CC1E
:100A450088F0EF60010E4E60C388F0ED2402B40417
:100A55000050B9F582EB2402B4040050AF232345BE
:060A650082239009C57315
:100A6B00BB010689828A83E0225002E722BBFE0289
:090A7B00E32289828A83E49322BC
:100A8400BB010CE58229F582E5833AF583E0225027
:100A940006E92582F8E622BBFE06E92582F8E22271
:0D0AA400E58229F582E5833AF583E493228B
:100AB100BB010989828A83F8E028F022500327F7D5
:100AC10022BBFE05F8E328F3228A838982F8E493A6
:020AD1002822D9
:100AD300BB010689828A83F0225002F722BBFE0102
:020AE300F322FC
:100AE500C5F0F8A3E028F0C5F0F8E582158270029C
:060AF5001583E038F02239
:100AFB0075F008758200EF2FFFEE33FECD33CDCCB2
:100B0B0033CCC58233C5829BED9AEC99E582984034
:100B1B000CF582EE9BFEED9AFDEC99FC0FD5F0D611
:100B2B00E4CEFBE4CDFAE4CCF9A88222B800C1B93B
:100B3B000059BA002DEC8BF084CFCECDFCE5F0CB79
:100B4B00F97818EF2FFFEE33FEED33FDEC33FCEBB2
:100B5B0033FB10D703994004EB99FB0FD8E5E4F96D
:100B6B00FA227818EF2FFFEE33FEED33FDEC33FC5A
:100B7B00C933C910D7059BE99A4007EC9BFCE99A4E
:100B8B00F90FD8E0E4C9FAE4CCFB2275F010EF2F93
:100B9B00FFEE33FEED33FDCC33CCC833C810D70793
:100BAB009BEC9AE899400AED9BFDEC9AFCE899F8CE
:0E0BBB000FD5F0DAE4CDFBE4CCFAE4C8F92261
:0C0BC900ECF0A3EDF0A3EEF0A3EFF0229F
:100BD500A8828583F0D083D082120BEC120BEC1225
:100BE5000BEC120BECE473E493A3C583C5F0C5834A
:100BF500C8C582C8F0A3C583C5F0C583C8C582C86A
:010C050022CC
:10061000E509245EF582E43401F583E005092290C2
:10062000015B30070390015EE475F001120C3202A9
:100630000A6B2000E97F2ED2008018EF540F24901F
:10064000D43440D4FF30040BEF24BFB41A0050035D
:100650002461FFE50A6002150A050DE50D7002052B
:100660000C30070E90015BE475F001120C32EF02C2
:100670000AD3021AEA7403D2078003E4C207F50919
:1006800090015B120C49E4F50AF50CF50DE50A60E2
:10069000077F2012065380F5750BFFC201C200C20E
:1006A00002C203C205C206C20812061FFF700D3047
:1006B00007057F00120664AF0DAE0C22B4255FC2A1
:1006C000D5C20412061FFF24D0B40A00501A75F0D8
:1006D0000A780A30D50508B6FF0106C6A426F6201A
:1006E000D5047002D20380D924CFB41A00EF50048D
:1006F000C2E5D204020865D20180C6D20080C0D211
:100700000280BCD2D580BAD20580B47F20120653B5
:100710002002077401B50A0040F1120610FF12060C
:100720005302068DD208D2068095120610FB1206DF
:1007300010FA120610F94A4B700679367A097BFFD7
:1007400020022EE50A602A7E008E82758300120A3E
:100750008460060EEE650B70F0C2D5EBC0E0EAC017
:10076000E0E9C0E0EE1208ACD0E0F9D0E0FAD0E069
:10077000FB120A6BFF60AAEBC0E0EAC0E0E9C0E050
:10078000120653D0E02401F9D0E03400FAD0E0FBA7
:10079000E50B0460DCD50BD980877BFF7A0879A84C
:1007A000D202809C791080027908C206C2088008B3
:1007B000D2D5790A8004790AC2D5E50B047002F516
:1007C0000BE4FAFDFEFF120610FC7B082001131259
:1007D0000610FD7B1030000A120610FE120610FFF4
:1007E0007B20EC3382D592D55013C3E43000069FB2
:1007F000FFE49EFEE42001039DFDE49CFCE4CBF8B5
:10080000C201EC700CCFCECDCCE824F8F870F380A8
:1008100017C3EF33FFEE33FEED33FDEC33FCEB3368
:10082000FB994002FB0FD8E9EB300105F8D0E0C49A
:1008300048B201C0E00AEC4D4E4F78207B0070C2F8
:10084000EAB50B0040BCC0E01208AED0F0D0E0200A
:100850000104C4C0E0C4B201C0F012063CD0F0D51F
:10086000F0EB02068D120C52072A5307A45806FB20
:100870004C06F74207A84F07B04407B0490710439A
:0808800007B655079A46079AD6
:1008880045079A4709565006FF2D07032E07262BC2
:10089800070723072420093F2A06BF480000071E30
:1008A8003F3F3F00790AA2D5200314300509B9104B
:1008B800020404B9080104A2D5200602500104204C
:1008C80002689202B50A005034C0E07F2030031954
:1008D8007F30A20272067205500F120905C202C2C9
:1008E80006C205C2087F30800F300503E9C0E01258
:1008F8000653300503D0E0F9D0E0B50ACC3005172F
:100908007F30B9100C1206537F583004077F788067
:1009180003B908031206533002057F2D0206537FE0
:10092800202008F87F2B2006F322920280CF286E21
:10093800756C6C2900D2011206103001F8C20178DA
:100948000A30D50108F60206BF2D50434958120651
:10095800102403B405004001E490095193120644A1
:0D096800743A120644D203750A040207A473
:100C0600EF4E6012EF60010EEDBB010B89828A8305
:100C1600F0A3DFFCDEFA2289F05007F709DFFCA912
:0C0C2600F022BBFEFCF309DFFCA9F02269
:100C3200F8E0FBA3A3E0F925F0F0E582158270024B
:070C42001583E0FA38F022EF
:090C4900EBF0A3EAF0A3E9F022AC
:100C5200D083D082F8E4937012740193700DA3A331
:100C620093F8740193F5828883E473740293686045
:060C7200EFA3A3A380DF45
:101AEA00EFB40A07740D121AF5740A309811A899FE
:101AFA00B8130CC2983098FDA899C298B811F6305C
:071B0A0099FDC299F5992233
:00000001FF
