:1008DC005030332046616C6C696E670A00503135BC
:1008EC002046616C6C696E670A005034302046619A
:1008FC006C6C696E670A005034312046616C6C690F
:10090C006E670A005033322046616C6C696E670A60
:0E091C00005033332046616C6C696E670A0030
:0806C000C9EDC9900078EFF0CC
:1006C80014601314601614601914601C2404701C40
:1006D800ACC4AEC58016AC92AE938010AC94AE9507
:1006E800800AAC96AE978004ACC2AEC3EB1460141B
:1006F80014601614601C2403701EE9F4FF5CFCEE01
:100708005FFE8014E9F45C800BEC49FCE9F45EFEC2
:100718008006EC49FCEE49FE900078E01460121463
:100728006014146016146018240470188CC48EC5E4
:10073800228C928E93228C948E95228C968E972260
:040748008CC28EC30E
:01074C00228A
:10057400900078EEF0A3EFF0547F7008900078E0DC
:1005840054F0601275A15575A1AAEDB4010543B2EA
:1005940080800353B27F900078E0FEA3E030E7024E
:1005A400D288EE30E002D28A75A15575A1AAEB6417
:1005B400017039900078A3E0FF547F42B2EF30E736
:1005C40002D2A8900078E0FEEE30E002D2AAEE5407
:1005D400F06014900078E0FF7E00EEF0A3EFF0905E
:1005E40021EAE0FDED4FF0D2EED2AF22900078A3E5
:1005F400E0FF547FF452B2EF30E702C2A8900078D3
:10060400E0FEEE30E002C2AAEE54F06017900078EB
:10061400E0FF7E00EEF0A3EFF09021EAE0FDEFF4BE
:07062400FFED4FF0C2EE22D2
:030063000207CBC6
:1007CB00C0E0C0F0C083C082C0D0E8C0E0E9C0E0A8
:1007DB00EAC0E0EBC0E0ECC0E0EDC0E0EEC0E0EF63
:1007EB00C0E02083097BFF7A0879DC1200D12095C9
:1007FB00097BFF7A0879E91200D120C0097BFF7AC7
:10080B000879F61200D120C1097BFF7A097903120E
:10081B0000D1D0E0FFD0E0FED0E0FDD0E0FCD0E096
:10082B00FBD0E0FAD0E0F9D0E0F8D0D0D082D08382
:05083B00D0F0D0E03216
:03000300020840B0
:10084000C0E0C0F0C083C082C0D0E8C0E0E9C0E032
:10085000EAC0E0EBC0E0ECC0E0EDC0E0EEC0E0EFED
:10086000C0E07BFF7A0979101200D1D0E0FFD0E020
:10087000FED0E0FDD0E0FCD0E0FBD0E0FAD0E0F923
:0E088000D0E0F8D0D0D082D083D0F0D0E032DB
:0300130002088E52
:10088E00C0E0C0F0C083C082C0D0E8C0E0E9C0E0E4
:10089E00EAC0E0EBC0E0ECC0E0EDC0E0EEC0E0EF9F
:1008AE00C0E07BFF7A09791D1200D1D0E0FFD0E0C5
:1008BE00FED0E0FDD0E0FCD0E0FBD0E0FAD0E0F9D5
:0E08CE00D0E0F8D0D0D082D083D0F0D0E0328D
:10003D00434849505F49443A253032780A004558C3
:0C004D00414D204750494F2E2E2E0A0036
:10074D007F327E0012094412097212062B7BFF7A4A
:10075D0000793DAFA190007BE4F0A3EFF01200D142
:10076D007BFF7A00794B1200D17B017D047F021251
:10077D0006C07B037D08E4FF1206C07B037D207F4E
:10078D00011206C07B037D047F031206C07B037D2F
:10079D00087F031206C07B037D017F041206C07B18
:1007AD00037D027F041206C07B017D017FA87E813F
:0E07BD00120574B2A27F647E0012094480F51A
:1009720075A15575A1AAE5B954F84405F5B9E4F590
:02098200A122B0
:10092A00EF4E601505A105A105A105A105A105A127
:0A093A0005A1EF1F70EA1E80E722FE
:10094400AD07AC06ED4C600E7FE87E0312092AED7C
:070954001D70F11C80EE2272
:080984009021E9E04410F0228B
:10062B00C29FD29EC29DC2CDC2CC43878090007820
:10063B001204A500000082E47B0AFAF9F890007816
:10064B00E0FCA3E0FDA3E0FEA3E0FF120407900093
:10065B007CEBF0900078E0FCA3E0FDA3E0FEA3E0D0
:10066B00FFE47B0AFAF9F812040790007812049958
:10067B0090007CE0C39405401F900078E0FCA3E061
:10068B00FDA3E0FEA3E02401FFE43EFEE43DFDE418
:10069B003CFC900078120499E589540F4420F589AD
:1006AB0043C9A0900078A3A3A3E0F404F58DD28EE8
:0406BB00D299D29C62
:0106BF002218
:08098C003098FDC298AF9922DA
:080994008F993099FDC29922F0
:10095B0075A15575A1AAEF600543B101800353B191
:07096B00FEE4F5A1F5FF22F7
:03099C008FFF22A8
:0A00590075A15575A1AA43B110224C
:03000000020006F5
:0C000600787FE4F6D8FD75812402074DD8
:1003CB0075F008758200EF2FFFEE33FECD33CDCCE9
:1003DB0033CCC58233C5829BED9AEC99E58298406C
:1003EB000CF582EE9BFEED9AFDEC99FC0FD5F0D649
:1003FB00E4CEFBE4CDFAE4CCF9A88222B800C1B973
:10040B000059BA002DEC8BF084CFCECDFCE5F0CBB0
:10041B00F97818EF2FFFEE33FEED33FDEC33FCEBE9
:10042B0033FB10D703994004EB99FB0FD8E5E4F9A4
:10043B00FA227818EF2FFFEE33FEED33FDEC33FC91
:10044B00C933C910D7059BE99A4007EC9BFCE99A85
:10045B00F90FD8E0E4C9FAE4CCFB2275F010EF2FCA
:10046B00FFEE33FEED33FDCC33CCC833C810D707CA
:10047B009BEC9AE899400AED9BFDEC9AFCE899F805
:0E048B000FD5F0DAE4CDFBE4CCFAE4C8F92298
:0C049900ECF0A3EDF0A3EEF0A3EFF022D6
:1004A500A8828583F0D083D0821204BC1204BC12CA
:1004B50004BC1204BCE473E493A3C583C5F0C583EF
:1004C500C8C582C8F0A3C583C5F0C583C8C582C8A1
:0104D5002204
:10006600E517247BF582E43400F583E0051722903A
:10007600007830220390007BE475F00112052E0211
:1000860004D6201BE97F2ED21B8018EF540F249034
:10009600D43440D4FF301F0BEF24BFB41A005003F2
:1000A6002461FFE51860021518051BE51B700205A3
:1000B6001A30220E900078E475F00112052EEF0238
:1000C600051C0200167403D2228003E4C222F5172F
:1000D600900078120545E4F518F51AF51BE5186049
:1000E600077F201200A980F57519FFC21CC21BC22A
:1000F6001DC21EC220C221C223120075FF700D3020
:1001060022057F001200BAAF1BAE1A22B4255FC2C9
:10011600D5C21F120075FF24D0B40A00501A75F01C
:100126000A781830D50508B6FF0106C6A426F620BB
:10013600D5047002D21E80D924CFB41A00EF500421
:10014600C2E5D21F0202BBD21C80C6D21B80C0D21F
:100156001D80BCD2D580BAD22080B47F201200A9DF
:10016600201D077401B5180040F1120066FF120049
:10017600A90200E3D223D2218095120066FB120069
:1001860066FA120066F94A4B7006798C7A037BFF91
:10019600201D2EE518602A7E008E827583001204CB
:1001A600EF60060EEE651970F0C2D5EBC0E0EAC04E
:1001B600E0E9C0E0EE120302D0E0F9D0E0FAD0E0C8
:1001C600FB1204D6FF60AAEBC0E0EAC0E0E9C0E09B
:1001D6001200A9D0E02401F9D0E03400FAD0E0FB07
:1001E600E5190460DCD519D980877BFF7A0279FE90
:1001F600D21D809C791080027908C221C223800812
:10020600D2D5790A8004790AC2D5E519047002F5B7
:1002160019E4FAFDFEFF120066FC7B08201C13128F
:100226000066FD7B10301B0A120066FE120066FF98
:100236007B20EC3382D592D55013C3E4301B069F46
:10024600FFE49EFEE4201C039DFDE49CFCE4CBF849
:10025600C21CEC700CCFCECDCCE824F8F870F3803D
:1002660017C3EF33FFEE33FEED33FDEC33FCEB3318
:10027600FB994002FB0FD8E9EB301C05F8D0E0C42F
:1002860048B21CC0E00AEC4D4E4F78207B0070C28D
:10029600EAB5190040BCC0E0120304D0F0D0E0205B
:1002A6001C04C4C0E0C4B21CC0F0120092D0F0D549
:1002B600F0EB0200E312054E01805301FA5801519A
:1002C6004C014D4201FE4F020644020649016643B7
:0802D600020C5501F04601F095
:1002DE004501F04703AC5001552D01592E017C2BE1
:1002EE00015D23017A2003952A011548000001744F
:1002FE003F3F3F00790AA2D5201E14302009B910C5
:10030E00020404B9080104A2D520210250010420E0
:10031E001D68921DB518005034C0E07F20301E19A4
:10032E007F30A21D72217220500F12035BC21DC2BC
:10033E0021C220C2237F30800F302003E9C0E0129B
:10034E0000A9302003D0E0F9D0E0B518CC3020174A
:10035E007F30B9100C1200A97F58301F077F7880AC
:10036E0003B908031200A9301D057F2D0200A97FD5
:10037E00202023F87F2B2021F322921D80CF286E80
:10038E00756C6C2900D21C120066301CF8C21C78E9
:10039E001830D50108F60201152D504349581200A8
:1003AE00662403B405004001E49003A79312009A5B
:0D03BE00743A12009AD21E7518040201FA5A
:1004D600BB010689828A83E0225002E722BBFE0224
:0904E600E32289828A83E4932257
:1004EF00BB010CE58229F582E5833AF583E02250C2
:1004FF0006E92582F8E622BBFE06E92582F8E2220C
:0D050F00E58229F582E5833AF583E4932225
:10051C00BB010689828A83F0225002F722BBFE01BE
:02052C00F322B8
:10052E00F8E0FBA3A3E0F925F0F0E5821582700256
:07053E001583E0FA38F022FA
:09054500EBF0A3EAF0A3E9F022B7
:10054E00D083D082F8E4937012740193700DA3A33C
:10055E0093F8740193F5828883E473740293686050
:06056E00EFA3A3A380DF50
:10001600EFB40A07740D120021740A309811A899DA
:10002600B8130CC2983098FDA899C298B811F6304A
:0700360099FDC299F5992222
:00000001FF
