:100A6D004C69676874206F6E204E756D204C6F63F6
:100A7D006B204C4544210A004C69676874206F66F1
:100A8D0066204E756D204C6F636B204C4544210ADA
:100A9D000053455420434F4E4649472E0A00576197
:100AAD006B650A00456E61626C652052656D6F74F1
:100ABD00652057616B6575702E0A00457272457021
:100ACD0030526571436F64653D253032580A0045DB
:100ADD007272456E6470496E740A00556E6B6E6F5E
:100AED00776E496E740A002563004B4D2044657680
:100AFD00696365207374617274202E2E2E0A0012A4
:100B0D0001100100000008861AE1E6000101020053
:100B1D0001040309040E037700630068002E0063CF
:100B2D00006E000C0343004800350034003500050D
:100B3D00010906A101050719E029E7150025017531
:100B4D0001950881029501750881019503750105CF
:100B5D0008190129039102950575019101950675F5
:100B6D000826FF000507190029918100C00501091C
:100B7D0002A1010901A1000509190129031500258B
:100B8D000175019503810275059501810105010925
:100B9D0030093109381581257F750895038106C007
:100BAD00C009023B00020100A0320904000001034C
:100BBD00010100092111010001223E0007058103F9
:100BCD0008000A09040100010301020009211001B6
:0C0BDD0000012234000705820304000A16
:09003800015E00015F00015B00A4
:0E0EBB0053D1FB7F027E00120E7B43D1042236
:0A000300755E01FB7A0079537D0859
:10000D008D39AF397E00EBC0E0EAC0E0E9C0E074A5
:10001D000AF87400FC7401FDD0E0F9D0E0FAD0E0EC
:0B002D00FB1208BF8539D353D2FC2220
:0A0E0500755F01FB7A0079607D043F
:100E0F008D39AF397E00EBC0E0EAC0E0E9C0E07495
:100E1F0014F87400FC7401FDD0E0F9D0E0FAD0E0D2
:0B0E2F00FB1208BF8539D553D4FC220C
:0300430002004672
:0D004600C0E0C0F0C083C082C0D075D008FB
:1000530020D903020450E5D954BF700302010E24D2
:10006300E0604314602C24A1700302010E24E060BD
:100073003514601E1460072480600302013A75D5AD
:100083000063D440755F00E5D454FC4402F5D40208
:10009300044C75D30063D240755E00E5D254FC4432
:1000A30002F5D202044CE54D24FB604C147053C39B
:1000B300E54F9408E54E940040047F088002AF4F5B
:1000C3008F237E007400F87400FC7401FDAB50AA0A
:1000D30051A9521208BFAF237E00C3E54F9FF54FCE
:1000E300E54E9EF54EEF2552F552EE3551F551850D
:1000F30023DD63DC4002044CE5E35480454FF5E324
:10010300800375DD0075DC0202044C85DB23E54DBD
:100113006409701D900000E060087BFF7A0A796D26
:10012300800C900000E070097BFF7A0A7985120445
:10013300F563DC8002044CE5D954B064B06003027B
:10014300044375DCC0900007E0FDFE900006E07AF2
:10015300002400F54FEA3EF54E752300900001E0C0
:10016300F54DED700BD3E54F947FE54E94004006BB
:10017300754E00754F7F752300900000E05460605A
:1001830018E54D1424FD400302041B24FB24FD4009
:100193000302041B80000203D3E54DB40B004003AC
:1001A3000204099001ADF82828730203ED0202FA54
:1001B30002040902034F0204090202BB0201CE0238
:1001C30004090202C70202DE0203D8900003E024FE
:1001D300FE601C14602724E1605A2421600302029C
:1001E300647550FF75510B75520C7523128075752C
:1001F30050FF75510B7552AE75233B80679000021B
:10020300E0602324FE60110470577550FF75510B95
:1002130075522275230E804C7550FF75510B755224
:100223003075230C803E7550FF75510B75521E754A
:1002330023048030900004E0FF7E00700E7550FFB1
:1002430075510B75523C75233E8019EF64014E7056
:100253000E7550FF75510B75527A752334800580E6
:10026300007523FFAF237E00D3E54F9FE54E9E40ED
:10027300048E4E8F4FC3E54F9408E54E940040041F
:100283007F088002AF4F8F237E007400F87400FC58
:100293007401FDAB50AA51A9521208BFAF237E00CF
:1002A300C3E54F9FF54FE54E9EF54EEF2552F552B0
:1002B300EE3551F55102041B900002E0754E00F536
:1002C3004F02041B900000E55CF0C3E54F9401E589
:1002D3004E9400500302041B0203E8900002E0F571
:1002E3005CE55C700302041B7BFF7A0A799E1204AF
:1002F300F575640102041B900000E0541FFF7E00AB
:1003030064027036900004E01460261460122481A5
:100313006014147022E5D454BC4402F5D402041BC7
:1003230053D47302041BE5D254BC4402F5D2020435
:100333001B53D27302041B0203D3EF4E700BF55B06
:100343007BFF7A0A79AB0204180203D3900000E022
:10035300541F7027900003E0FE900002E0FDED645F
:10036300014E7015900BB59330E50C755B017BFF67
:100373007A0A79B102041880578055900000E0543E
:100383001F6402704B900003E0FE900002E0FDED5D
:100393004E703B900005E0FE900004E0FDEDFFEEA3
:1003A300702AEF24FE60112481601714701EE5D4B7
:1003B30054BF4403F5D48060E5D4547F440CF5D492
:1003C3008056E5D254BF4403F5D2804C80028000AE
:1003D3007523FF8043900000E4F0C3E54F9401E5EB
:1003E3004E94004033752301802E900000E4F0A367
:1003F300F0C3E54F9402E54E940040057523028057
:1004030017854F2380127523FF7BFF7A0A79C875FE
:100413003C00854D3D1204F5AF237E00EFF47008D8
:10042300754DFF75DCCF8021D3EF9408EE64809483
:100433008050058523DD800375DD0075DCC08009F0
:100443007BFF7A0A79DC1204F5C2D9803230D817DF
:1004530075DC0275D20275D40275E300C2DAC2D923
:10046300756400C2D8801830DA09C2DAE5DA30E2FE
:100473000E800C7BFF7A0A79E81204F575D8FF30F9
:05048300D9030200593D
:0B048800D0D0D082D083D0F0D0E03282
:100D6F00C2EAE4F5E2F5D3F5D59021E0E054F3F0D3
:100D7F00E054EF4440F0A3E054FE4404F07400FE4E
:100D8F0074008EEDF5EC7400FE740A8EEFF5EE74C0
:100D9F0000FE74148EE5F5E4E4F5E353D1F743D187
:100DAF000443E24043E22843D10175D8FFA37407FF
:040DBF00F0D2EA2262
:100C7500120ED38F387BFF7A0A79F485383C12043B
:100C8500F5E55B6003020EBBE53824BF603C24F04C
:100C9500604B14601724067058756001E55F70FCA1
:100CA500120E05E4F560E55F70FC8011756002E5E4
:100CB5005F70FC120E05E4F560E55F70FC755F0181
:100CC500FB7A0079607D04020E0F755504E55E70B0
:100CD500FC120003E4F555E55E70FC80117555398D
:100CE500E55E70FC120003E4F555E55E70FC12004C
:010CF50003FB
:010CF60022DB
:100DC300120EA97F147E00120E7B120CF77BFF7AA2
:100DD3000A79F71204F5120D6FD2AF7E007F087DFA
:100DE300007B007A0079531209B37E007F047D00F3
:100DF3007B007A0079601209B3E56460FC120C751C
:020E030080F776
:100EA90075A15575A1AAE5B954F84405F5B9E4F554
:020EB900A12274
:100E6100EF4E601505A105A105A105A105A105A1EB
:0A0E710005A1EF1F70EA1E80E722C2
:100E7B00AD07AC06ED4C600E7FE87E03120E61ED04
:070E8B001D70F11C80EE2236
:080EDD009021E9E04410F0222D
:100CF700C29FD29EC29DC2CDC2CC438780E4753BC2
:100D070082F53AF539F5387B0AFAF9F8AF3BAE3A8E
:100D1700AD39AC38120921AF038F3CAF3BAE3AADCA
:100D270039AC38E47B0AFAF9F81209218F3B8E3A7D
:100D37008D398C38C3E53C9405748094804011EF5D
:100D47002401F53BE43EF53AE43DF539E43CF5385A
:100D5700E589540F4420F58943C9A0E53BF404F520
:070D67008DD28ED299D29CBF
:010D6E002262
:080EE5003098FDC298AF99227C
:080EED008F993099FDC2992292
:100E920075A15575A1AAEF600543B101800353B155
:070EA200FEE4F5A1F5FF22BB
:030EF5008FFF224A
:0A0EC90075A15575A1AA43B11022CE
:03000000020BE907
:0C0BE900787FE4F6D8FD758164020C30C2
:1007EF00E709F608DFFA8046E709F208DFFA803EEC
:1007FF0088828C83E709F0A3DFFA8032E309F608D9
:10080F00DFFA8078E309F208DFFA807088828C8340
:10081F00E309F0A3DFFA806489828A83E0A3F608F4
:10082F00DFFA805889828A83E0A3F208DFFA804CCE
:10083F0080D280FA80C680D4806980F280338010A5
:10084F0080A680EA809A80A880DA80E280CA80330E
:10085F0089828A83ECFAE493A3C8C582C8CCC58386
:10086F00CCF0A3C8C582C8CCC583CCDFE9DEE78056
:10087F000D89828A83E493A3F608DFF9ECFAA9F0D5
:10088F00EDFB2289828A83ECFAE0A3C8C582C8CC2B
:10089F00C583CCF0A3C8C582C8CCC583CCDFEADE44
:1008AF00E880DB89828A83E493A3F208DFF980CCA6
:1008BF0088F0EF60010E4E60C388F0ED2402B4049F
:1008CF000050B9F582EB2402B4040050AF23234546
:0608DF00822390083F7324
:1008E50075F008758200EF2FFFEE33FECD33CDCCCA
:1008F50033CCC58233C5829BED9AEC99E58298404D
:100905000CF582EE9BFEED9AFDEC99FC0FD5F0D629
:10091500E4CEFBE4CDFAE4CCF9A88222B800C1B953
:100925000059BA002DEC8BF084CFCECDFCE5F0CB91
:10093500F97818EF2FFFEE33FEED33FDEC33FCEBCA
:1009450033FB10D703994004EB99FB0FD8E5E4F985
:10095500FA227818EF2FFFEE33FEED33FDEC33FC72
:10096500C933C910D7059BE99A4007EC9BFCE99A66
:10097500F90FD8E0E4C9FAE4CCFB2275F010EF2FAB
:10098500FFEE33FEED33FDCC33CCC833C810D707AB
:100995009BEC9AE899400AED9BFDEC9AFCE899F8E6
:0E09A5000FD5F0DAE4CDFBE4CCFAE4C8F92279
:10049300E548243CF8E60548227839301002783CD8
:1004A300E475F001120A370209DF2009EB7F2ED22F
:1004B300098018EF540F2490D43440D4FF300D0B2F
:1004C300EF24BFB41A0050032461FFE5496002150D
:1004D30049054CE54C7002054B30100D7839E47535
:1004E300F001120A37EF020A25020E3A7403D21002
:1004F3008003E4C210F5488B398A3A893BE4F54915
:10050300F54BF54CE54960077F201204CE80F57565
:100513004AFFC20AC209C20BC20CC20EC20FC211E9
:1005230012049CFF700D3010057F001204DFAF4CE6
:10053300AE4B22B4255FC2D5C20D12049CFF24D05A
:10054300B40A00501A75F00A784930D50508B6FF89
:100553000106C6A426F620D5047002D20C80D92445
:10056300CFB41A00EF5004C2E5D20D0206DFD20A5F
:1005730080C6D20980C0D20B80BCD2D580BAD20E3D
:1005830080B47F201204CE200B077401B5490040CC
:10059300F1120493FF1204CE020507D211D20F8089
:1005A30095120493FB120493FA120493F94A4B70C5
:1005B3000679B07A077BFF200B2EE549602A7E007F
:1005C3008E827583001209F860060EEE654A70F09C
:1005D300C2D5EBC0E0EAC0E0E9C0E0EE120726D0E6
:1005E300E0F9D0E0FAD0E0FB1209DFFF60AAEBC02C
:1005F300E0EAC0E0E9C0E01204CED0E02401F9D083
:10060300E03400FAD0E0FBE54A0460DCD54AD98047
:10061300877BFF7A077922D20B809C79108002793D
:1006230008C20FC2118008D2D5790A8004790AC2A0
:10063300D5E54A047002F54AE4FAFDFEFF1204937D
:10064300FC7B08200A13120493FD7B1030090A1265
:100653000493FE120493FF7B20EC3382D592D55092
:1006630013C3E43009069FFFE49EFEE4200A039DC2
:10067300FDE49CFCE4CBF8C20AEC700CCFCECDCCED
:10068300E824F8F870F38017C3EF33FFEE33FEED81
:1006930033FDEC33FCEB33FB994002FB0FD8E9EB62
:1006A300300A05F8D0E0C448B20AC0E00AEC4D4E67
:1006B3004F78207B0070C2EAB54A0040BCC0E0120C
:1006C3000728D0F0D0E0200A04C4C0E0C4B20AC0B6
:1006D300F01204B7D0F0D5F0EB020507120A470574
:1006E300A453061E5805754C05714206224F062A6F
:0F06F30044062A49058A43063055061446061464
:100702004506144707D05005792D057D2E05A02BEF
:10071200058123059E2007B92A053948000005985E
:100722003F3F3F00790AA2D5200C14300E09B910C0
:10073200020404B9080104A2D5200F0250010420CA
:100742000B68920BB549005034C0E07F20300C1981
:100752007F30A20B720F720E500F12077FC20BC2B4
:100762000FC20EC2117F30800F300E03E9C0E012BB
:1007720004CE300E03D0E0F9D0E0B549CC300E17EC
:100782007F30B9100C1204CE7F58300D077F78806D
:1007920003B908031204CE300B057F2D0204CE7F6D
:1007A200202011F87F2B200FF322920B80CF286E8E
:1007B200756C6C2900D20A120493300AF8C20A78C6
:1007C2004930D50108F60205392D50434958120423
:1007D200932403B405004001E49007CB931204BFB5
:0D07E200743A1204BFD20C75490402061EC1
:0A0ED3003098FDAF99C2987E00220E
:1009B300EF4E6012EF60010EEDBB010B89828A835B
:1009C300F0A3DFFCDEFA2289F05007F709DFFCA968
:0C09D300F022BBFEFCF309DFFCA9F022BF
:100BF500020DC3E493A3F8E493A34003F68001F246
:100C050008DFF48029E493A3F85407240CC8C33300
:100C1500C4540F4420C8834004F456800146F6DFCF
:100C2500E4800B0102040810204080900038E47E27
:100C3500019360BCA3FF543F30E509541FFEE493C4
:100C4500A360010ECF54C025E060A840B8E493A38B
:100C5500FAE493A3F8E493A3C8C582C8CAC583CAB6
:100C6500F0A3C8C582C8CAC583CADFE9DEE780BE6E
:0100410000BE
:1009DF00BB010689828A83E0225002E722BBFE0216
:0909EF00E32289828A83E4932249
:1009F800BB010CE58229F582E5833AF583E02250B4
:100A080006E92582F8E622BBFE06E92582F8E222FD
:0D0A1800E58229F582E5833AF583E4932217
:100A2500BB010689828A83F0225002F722BBFE01B0
:020A3500F322AA
:100A3700FAE6FB0808E6F925F0F618E6CA3AF622C0
:100A4700D083D082F8E4937012740193700DA3A33E
:100A570093F8740193F5828883E473740293686052
:060A6700EFA3A3A380DF52
:100E3A00EFB40A07740D120E45740A309811A89976
:100E4A00B8130CC2983098FDA899C298B811F63018
:070E5A0099FDC299F59922F0
:00000001FF
