:100A5600457272457030526571436F64653D25304D
:100A660032580A00457272456E6470496E740A0007
:100A76007273740A00736C6565700A007765616B42
:100A86000A00556E6B6E6F776E4552520A0073748C
:100A9600617274202E2E2E0A001201000100000041
:100AA60040861A10E000000102000106A0FF0901BD
:100AB600A101090115002600FF750895408102096C
:100AC60002750895409102090375089540B102C068
:100AD60009022900010104A0230904000002030001
:100AE60000000921000100012225000705820340BC
:100AF600000107050203400001040309040E037701
:100B060000630068002E0063006E000C034300487B
:070B1600003500340035003A
:030D500001170088
:0300430002004672
:0D004600C0E0C0F0C083C082C0D075D008FB
:1000530020D90302044DE5D954BF700302013A24A9
:10006300E0606B24FE605324A2700302013A24FE75
:10007300600F24E2605824FE604024A06003020164
:100083004320DE0302044963D48085DB23E4FFEFCE
:10009300C39523501C74402FF582E43400F583E0AC
:1000A300F4FE74802FF582E43400F583EEF00F80C4
:1000B300DE8523D553D4FC02044975D50063D440AF
:1000C300751700E5D454FC4402F5D4020449E51045
:1000D30024FB605014600424057053C3E51294405C
:1000E300E511940040047F408002AF128F237E000D
:1000F3007400F87400FC7401FDAB13AA14A9151263
:1001030008D4AF237E00C3E5129FF512E5119EF5D7
:1001130011EF2515F515EE3514F5148523DD63DC94
:1001230040020449E5E354804512F5E3800375DD9D
:100133000075DC0202044985DB2363DC8002044989
:10014300E5D954B064B0600302044075DCC090008C
:1001530007E0FDFE900006E07A002400F512EA3E77
:10016300F511900001E0F510ED700BD3E512947FCB
:10017300E5119400400675110075127F75230090F8
:100183000000E05460605AE51024FE602E14602BDA
:1001930024FA24FD5025240B701E751301751400D9
:1001A3007515C0C3E5129440E5119400400575230D
:1001B30040800885122380037523FFAF237E00D37D
:1001C300E5129FE5119E40048E118F12C3E5129430
:1001D30040E511940040057F400202AFAF120202D6
:1001E300AFE510B40B0040030204069001F5F828B4
:1001F30028730203EA0203170204060203560204E9
:10020300060202E10202160204060202ED020304E0
:100213000203D5900003E024FE601914602424E156
:100223006057242170617513FF75140A75159F7546
:10023300231280567513FF75140A7515D675232975
:100243008048900002E0602324FE6011047038753A
:1002530013FF75140B75150375230E802D7513FF8E
:1002630075140B75151175230C801F7513FF751409
:100273000A7515FF75230480117513FF75140A752C
:1002830015B175232580037523FFAF237E00D3E5C6
:10029300129FE5119E40048E118F12C3E512944004
:1002A300E511940040047F408002AF128F237E004B
:1002B3007400F87400FC7401FDAB13AA14A91512A1
:1002C30008D4AF237E00C3E5129FF512E5119EF516
:1002D30011EF2515F515EE3514F5140204189000E9
:1002E30002E0751100F512020418900000E516F003
:1002F300C3E5129401E511940050030204180203AC
:10030300E5900002E0F516E516700302041875186F
:1003130001020418900000E0541F6402703390003F
:1003230004E01460261460122481601414704BE5F9
:10033300D454BC4402F5D402041853D473020418F1
:10034300E5D254BC4402F5D202041853D27302041A
:1003530018807A900000E0541FFD7C00701E90000E
:1003630003E0FE900002E0FBEB64014E700C900A88
:10037300DD9330E50302041880538051ED64024C91
:10038300704B900003E0FE900002E0FDED4E703BE9
:10039300900005E0FE900004E0FDEDFFEE702AEF13
:1003A30024FE60112481601714701EE5D454BF44E9
:1003B30003F5D48060E5D4547F440CF5D48056E52E
:1003C300D254BF4403F5D2804C800280007523FFD2
:1003D3008043900000E4F0C3E5129401E51194001A
:1003E3004033752301802E900000E4F0A3F0C3E5B1
:1003F300129402E5119400400575230280178512BB
:100403002380127523FF7BFF7A0A7956753B00859B
:10041300103C12050AAF237E00EFF470087510FF3D
:1004230075DCCF8021D3EF9440EE64809480500537
:100433008523DD800375DD0075DCC080097BFF7AD1
:100443000A796A12050AC2D9804A30D8207BFF7A1A
:100453000A797612050A75DC0275D40275E300C2C7
:10046300DAC2D9751700751800C2D8802730DA1898
:10047300C2DAE5DA7BFF30E2067A0A797B80047A16
:100483000A798212050A800C7BFF7A0A79881205A1
:0A0493000A75D8FF30D903020059A2
:0B049D00D0D0D082D083D0F0D0E0326D
:100003008D38AF387E00EBC0E0EAC0E0E9C0E074B1
:1000130080F87400FC7401FDD0E0F9D0E0FAD0E080
:0B002300FB1208D48538D553D4FC2212
:100C7500C2EAE4F5E29021E1E0440CF0E054FEF034
:100C85009021E0E054F3F0E4F5D57400FE74008E95
:100C9500EDF5EC7400FE74408EE5F5E4E4F5E35300
:100CA500D1F753D1FB53E2BF43E22843D10175D8B5
:0A0CB500FF9021E27407F0D2EA225A
:100C210012002E7F147E00120D00120BA97BFF7A99
:100C31000A799412050AE4FFEFC39440748094800A
:100C4100500F74C02FF582E43400F583EFF00F806C
:100C5100E7120C75D2AF209512E51770FC751701DC
:100C61007B017A0079C07D401200037F647E00120F
:040C71000D0080E210
:10002E0075A15575A1AAE5B954F84405F5B9E4F5DD
:02003E00A122FD
:100CE600EF4E601505A105A105A105A105A105A168
:0A0CF60005A1EF1F70EA1E80E7223F
:100D0000AD07AC06ED4C600E7FE87E03120CE6EDFD
:070D10001D70F11C80EE22B2
:080D38009021E9E04410F022D3
:100BA900C29FD29EC29DC2CDC2CC438780E4753B11
:100BB90082F53AF539F5387B0AFAF9F8AF3BAE3ADE
:100BC900AD39AC38120936AF038F3CAF3BAE3AAD05
:100BD90039AC38E47B0AFAF9F81209368F3B8E3AB8
:100BE9008D398C38C3E53C9405748094804011EFAD
:100BF9002401F53BE43EF53AE43DF539E43CF538AA
:100C0900E589540F4420F58943C9A0E53BF404F56F
:070C19008DD28ED299D29C0E
:010C200022B1
:080D40003098FDC298AF992222
:080D48008F993099FDC2992238
:100D170075A15575A1AAEF600543B101800353B1D1
:070D2700FEE4F5A1F5FF2237
:030040008FFF220D
:0A0D2E0075A15575A1AA43B110226A
:03000000020B1DD3
:0C0B1D00787FE4F6D8FD75814B020B6474
:10080400E709F608DFFA8046E709F208DFFA803ED6
:1008140088828C83E709F0A3DFFA8032E309F608C3
:10082400DFFA8078E309F208DFFA807088828C832B
:10083400E309F0A3DFFA806489828A83E0A3F608DF
:10084400DFFA805889828A83E0A3F208DFFA804CB9
:1008540080D280FA80C680D4806980F28033801090
:1008640080A680EA809A80A880DA80E280CA8033F9
:1008740089828A83ECFAE493A3C8C582C8CCC58371
:10088400CCF0A3C8C582C8CCC583CCDFE9DEE78041
:100894000D89828A83E493A3F608DFF9ECFAA9F0C0
:1008A400EDFB2289828A83ECFAE0A3C8C582C8CC16
:1008B400C583CCF0A3C8C582C8CCC583CCDFEADE2F
:1008C400E880DB89828A83E493A3F208DFF980CC91
:1008D40088F0EF60010E4E60C388F0ED2402B4048A
:1008E4000050B9F582EB2402B4040050AF23234531
:0608F400822390085473FA
:1008FA0075F008758200EF2FFFEE33FECD33CDCCB5
:10090A0033CCC58233C5829BED9AEC99E582984037
:10091A000CF582EE9BFEED9AFDEC99FC0FD5F0D614
:10092A00E4CEFBE4CDFAE4CCF9A88222B800C1B93E
:10093A000059BA002DEC8BF084CFCECDFCE5F0CB7C
:10094A00F97818EF2FFFEE33FEED33FDEC33FCEBB5
:10095A0033FB10D703994004EB99FB0FD8E5E4F970
:10096A00FA227818EF2FFFEE33FEED33FDEC33FC5D
:10097A00C933C910D7059BE99A4007EC9BFCE99A51
:10098A00F90FD8E0E4C9FAE4CCFB2275F010EF2F96
:10099A00FFEE33FEED33FDCC33CCC833C810D70796
:1009AA009BEC9AE899400AED9BFDEC9AFCE899F8D1
:0E09BA000FD5F0DAE4CDFBE4CCFAE4C8F92264
:1004A800E547243BF8E60547227838301002783BC8
:1004B800E475F001120A200209C82009EB7F2ED248
:1004C800098018EF540F2490D43440D4FF300D0B1A
:1004D800EF24BFB41A0050032461FFE548600215F9
:1004E80048054BE54B7002054A30100D7838E47525
:1004F800F001120A20EF020A0E020CBF7403D21098
:100508008003E4C210F5478B388A39893AE4F54804
:10051800F54AF54BE54860077F201204E380F5753E
:1005280049FFC20AC209C20BC20CC20EC20FC211D5
:100538001204B1FF700D3010057F001204F4AF4BA8
:10054800AE4A22B4255FC2D5C20D1204B1FF24D031
:10055800B40A00501A75F00A784830D50508B6FF75
:100568000106C6A426F620D5047002D20C80D92430
:10057800CFB41A00EF5004C2E5D20D0206F4D20A35
:1005880080C6D20980C0D20B80BCD2D580BAD20E28
:1005980080B47F201204E3200B077401B5480040A3
:1005A800F11204A8FF1204E302051CD211D20F8035
:1005B800951204A8FB1204A8FA1204A8F94A4B7071
:1005C8000679C57A077BFF200B2EE548602A7E0056
:1005D8008E827583001209E160060EEE654970F09F
:1005E800C2D5EBC0E0EAC0E0E9C0E0EE12073BD0BC
:1005F800E0F9D0E0FAD0E0FB1209C8FF60AAEBC02E
:10060800E0EAC0E0E9C0E01204E3D0E02401F9D058
:10061800E03400FAD0E0FBE5490460DCD549D98034
:10062800877BFF7A077937D20B809C791080027913
:1006380008C20FC2118008D2D5790A8004790AC28B
:10064800D5E549047002F549E4FAFDFEFF1204A855
:10065800FC7B08200A131204A8FD7B1030090A123B
:1006680004A8FE1204A8FF7B20EC3382D592D55053
:1006780013C3E43009069FFFE49EFEE4200A039DAD
:10068800FDE49CFCE4CBF8C20AEC700CCFCECDCCD8
:10069800E824F8F870F38017C3EF33FFEE33FEED6C
:1006A80033FDEC33FCEB33FB994002FB0FD8E9EB4D
:1006B800300A05F8D0E0C448B20AC0E00AEC4D4E52
:1006C8004F78207B0070C2EAB5490040BCC0E012F8
:1006D800073DD0F0D0E0200A04C4C0E0C4B20AC08C
:1006E800F01204CCD0F0D5F0EB02051C120A30054C
:1006F800B953063358058A4C05864206374F063FDC
:0F07080044063F49059F430645550629460629E5
:100717004506294707E550058E2D05922E05B52B71
:1007270005962305B32007CE2A054E48000005ADE0
:100737003F3F3F00790AA2D5200C14300E09B910AB
:10074700020404B9080104A2D5200F0250010420B5
:100757000B68920BB548005034C0E07F20300C196D
:100767007F30A20B720F720E500F120794C20BC28A
:100777000FC20EC2117F30800F300E03E9C0E012A6
:1007870004E3300E03D0E0F9D0E0B548CC300E17C3
:100797007F30B9100C1204E37F58300D077F788043
:1007A70003B908031204E3300B057F2D0204E37F2E
:1007B700202011F87F2B200FF322920B80CF286E79
:1007C700756C6C2900D20A1204A8300AF8C20A789C
:1007D7004830D50108F602054E2D504349581204FA
:1007E700A82403B405004001E49007E0931204D461
:0D07F700743A1204D4D20C75480402063383
:100B2900020C21E493A3F8E493A34003F68001F2B5
:100B390008DFF48029E493A3F85407240CC8C333CD
:100B4900C4540F4420C8834004F456800146F6DF9C
:100B5900E4800B0102040810204080900D50E47ECF
:100B6900019360BCA3FF543F30E509541FFEE49391
:100B7900A360010ECF54C025E060A840B8E493A358
:100B8900FAE493A3F8E493A3C8C582C8CAC583CA83
:100B9900F0A3C8C582C8CAC583CADFE9DEE780BE3B
:010D5300009F
:1009C800BB010689828A83E0225002E722BBFE022D
:0909D800E32289828A83E4932260
:1009E100BB010CE58229F582E5833AF583E02250CB
:1009F10006E92582F8E622BBFE06E92582F8E22215
:0D0A0100E58229F582E5833AF583E493222E
:100A0E00BB010689828A83F0225002F722BBFE01C7
:020A1E00F322C1
:100A2000FAE6FB0808E6F925F0F618E6CA3AF622D7
:100A3000D083D082F8E4937012740193700DA3A355
:100A400093F8740193F5828883E473740293686069
:060A5000EFA3A3A380DF69
:100CBF00EFB40A07740D120CCA740A309811A89970
:100CCF00B8130CC2983098FDA899C298B811F63095
:070CDF0099FDC299F599226D
:00000001FF
