:10095F00457272457030526571547970653D25301E
:10096F0032580A00457272457030526571436F6498
:10097F00653D253032580A00457272456E647049E4
:10098F006E740A00736C6565700A00556E6B6E6F3E
:10099F00776E496E740A0053746172742040436815
:1009AF00697049443D253032580A0012011001FF89
:1009BF0080550848433755000101020001090227FD
:1009CF000001010080320904000003FF8055000779
:1009DF000582024000000705020240000007058162
:1009EF0003400000040309040E037700630068004E
:1009FF002E0063006E000C034300480035003400E6
:020A0F003500B0
:030BD80001150004
:0300430002004672
:0D004600C0E0C0F0C083C082C0D075D008FB
:10005300C29220D903020344E5D954BF1208D10147
:10006300330000840200D92000CB2100BD220133DC
:100073008000848200D9A000CBA100BDA2000001B2
:100083003920DE0302034063D48085DB23E4FFEFE2
:10009300C39523501C744A2FF582E43400F583E0A2
:1000A300F4FE748A2FF582E43400F583EEF00F80BA
:1000B300DE8523D553D4FC02034063D440E5D454F6
:1000C300FC4402F5D402034063D240E5D254FC441D
:1000D30002F5D2020340E51024FB604514704CC3C3
:1000E300E51194087480948040047F088002AF1166
:1000F3008F237E007400F87400FC7401FDAB12AA18
:1001030013A9141207DDC3E5119523F511E5232582
:1001130014F514E43513F5138523DD63DC40020382
:1001230040E5E354804511F5E3800575DD0080006B
:1001330075DC02020340E5D954B064B060030203E6
:100143003775DCC0900006E0F511A3E0700BD3E532
:1001530011947F74809480400375117F7523009000
:100163000000E0FF546060117523FF7BFF7A09797B
:100173005F753C008F3D02030C900001E0F510E534
:100183001070030202E114700302028E24FC700358
:1001930002025B24FD700302026414700302027AFC
:1001A3001470030202CC240460030202FD900003D6
:1001B300E024FE6015146020240270537512FF754D
:1001C30013097514BA75231280487512FF75130944
:1001D3007514CC752327803A900002E0602324FE37
:1001E300601104702A7512FF7513097514F77523CE
:1001F3000E801F7512FF75130A75140575230C8085
:10020300117512FF7513097514F3752304800375B3
:1002130023FFE511D395234003852311C3E51194EF
:10022300087480948040047F088002AF118F237E7E
:10023300007400F87400FC7401FDAB12AA13A91436
:100243001207DDC3E5119523F511E5232514F514F4
:10025300E43513F51302030F900002E0F5110203D6
:100263000F900000E515F0C3E511940174809480AC
:10027300500302030F8062900002E0F515E515605C
:1002830005C29102030FD29102030F900000E054C4
:100293001F6402702F900004E01460231460112483
:1002A30081601214701EE5D454BC4402F5D4805C02
:1002B30053D4738057E5D254BC4402F5D2804D53D6
:1002C300D27380487523FF8043900000E4F0C3E5B8
:1002D300119401748094804033752301802E900023
:1002E30000E4F0A3F0C3E511940274809480400508
:1002F300752302801785112380127523FF7BFF7AF4
:10030300097973753C0085103D120413AF237E00F9
:10031300EFF470087510FF75DCCF8021D3EF9408DC
:10032300EE6480948050058523DD800375DD0075C0
:10033300DCC080097BFF7A097987120413C2D98054
:100343005A30D81675DC0275D20275D40275E300F3
:10035300D291C2DAC2D9C2D8804130DA32C2DAE5E8
:10036300DA30E2277BFF7A097993120413D293E5FB
:10037300A220E7FB75A15575A1AA75A98143870240
:1003830075A15575A1AA75A9008010C293800C7B35
:10039300FF7A09799A12041375D8FF30D903020042
:0303A3005BD29298
:0B03A600D0D0D082D083D0F0D0E03265
:100B1500C2EAD291C293E4F5E29021E07440F0A3D9
:100B2500740CF07400FE74008EEDF5EC7400FE7428
:100B35000A8EEFF5EE7400FE744A8EE5F5E4E4F5F1
:100B4500E353D1F775E22843D10175D8FFA37407A4
:040B5500F0D2EA22CE
:100B5900120A9D7BFF7A0979A6AFA1753C008F3DEA
:0A0B6900120413120B15D2AF80FE28
:100BA40075A15575A1AAE5B954F84405F5B9E4F55C
:020BB400A1227C
:100B7300EF4E601505A105A105A105A105A105A1DC
:0A0B830005A1EF1F70EA1E80E722B3
:10002A00AD07AC06ED4C600E7FE87E03120B73ED54
:07003A001D70F11C80EE2295
:080BC0009021E9E04410F0224D
:100A9D00C29FD29EC29DC2CDC2CC438780E4753C1D
:100AAD0082F53BF53AF5397B0AFAF9F8AF3CAE3BE6
:100ABD00AD3AAC3912083FAF038F3DAF3CAE3BAD05
:100ACD003AAC39E47B0AFAF9F812083F8F3C8E3BB9
:100ADD008D3A8C39C3E53D9405748094804011EFB7
:100AED002401F53CE43EF53BE43DF53AE43CF539B3
:100AFD00E589540F4420F58943C9A0E53CF404F57C
:070B0D008DD28ED299D29C1B
:010B140022BE
:080BC8003098FDC298AF99229C
:080BD0008F993099FDC29922B2
:100B8D0075A15575A1AAEF600543B101800353B15D
:070B9D00FEE4F5A1F5FF22C3
:030BDC008FFF2266
:0A0BB60075A15575A1AA43B11022E4
:03000000020A11E0
:0C0A1100787FE4F6D8FD75814C020A588D
:10070D00E709F608DFFA8046E709F208DFFA803ECE
:10071D0088828C83E709F0A3DFFA8032E309F608BB
:10072D00DFFA8078E309F208DFFA807088828C8323
:10073D00E309F0A3DFFA806489828A83E0A3F608D7
:10074D00DFFA805889828A83E0A3F208DFFA804CB1
:10075D0080D280FA80C680D4806980F28033801088
:10076D0080A680EA809A80A880DA80E280CA8033F1
:10077D0089828A83ECFAE493A3C8C582C8CCC58369
:10078D00CCF0A3C8C582C8CCC583CCDFE9DEE78039
:10079D000D89828A83E493A3F608DFF9ECFAA9F0B8
:1007AD00EDFB2289828A83ECFAE0A3C8C582C8CC0E
:1007BD00C583CCF0A3C8C582C8CCC583CCDFEADE27
:1007CD00E880DB89828A83E493A3F208DFF980CC89
:1007DD0088F0EF60010E4E60C388F0ED2402B40482
:1007ED000050B9F582EB2402B4040050AF23234529
:0607FD00822390075D73EA
:1008030075F008758200EF2FFFEE33FECD33CDCCAC
:1008130033CCC58233C5829BED9AEC99E58298402F
:100823000CF582EE9BFEED9AFDEC99FC0FD5F0D60C
:10083300E4CEFBE4CDFAE4CCF9A88222B800C1B936
:100843000059BA002DEC8BF084CFCECDFCE5F0CB74
:10085300F97818EF2FFFEE33FEED33FDEC33FCEBAD
:1008630033FB10D703994004EB99FB0FD8E5E4F968
:10087300FA227818EF2FFFEE33FEED33FDEC33FC55
:10088300C933C910D7059BE99A4007EC9BFCE99A49
:10089300F90FD8E0E4C9FAE4CCFB2275F010EF2F8E
:1008A300FFEE33FEED33FDCC33CCC833C810D7078E
:1008B3009BEC9AE899400AED9BFDEC9AFCE899F8C9
:0E08C3000FD5F0DAE4CDFBE4CCFAE4C8F9225C
:1008D100D083D082F8E4937012740193700DA3A3B6
:1008E10093F8740193F5828883E4737402936860CA
:0608F100EFA3A3A380DFCA
:1003B100E548243CF8E60548227839301002783CBB
:1003C100E475F00112094F0208F72009EB7F2ED2E4
:1003D100098018EF540F2490D43440D4FF300D0B12
:1003E100EF24BFB41A0050032461FFE549600215F0
:1003F10049054CE54C7002054B30100D7839E47518
:10040100F00112094FEF02093D0200037403D210FB
:100411008003E4C210F5488B398A3A893BE4F549F7
:10042100F54BF54CE54960077F201203EC80F5752B
:100431004AFFC20AC209C20BC20CC20EC20FC211CC
:100441001203BAFF700D3010057F001203FDAF4C8F
:10045100AE4B22B4255FC2D5C20D1203BAFF24D020
:10046100B40A00501A75F00A784930D50508B6FF6C
:100471000106C6A426F620D5047002D20C80D92428
:10048100CFB41A00EF5004C2E5D20D0205FDD20A25
:1004910080C6D20980C0D20B80BCD2D580BAD20E20
:1004A10080B47F201203EC200B077401B549004092
:1004B100F11203B1FF1203EC020425D211D20F8015
:1004C100951203B1FB1203B1FA1203B1F94A4B7051
:1004D1000679CE7A067BFF200B2EE549602A7E0045
:1004E1008E8275830012091060060EEE654A70F067
:1004F100C2D5EBC0E0EAC0E0E9C0E0EE120644D0AC
:10050100E0F9D0E0FAD0E0FB1208F7FF60AAEBC0F7
:10051100E0EAC0E0E9C0E01203ECD0E02401F9D048
:10052100E03400FAD0E0FBE54A0460DCD54AD9802A
:10053100877BFF7A067940D20B809C791080027903
:1005410008C20FC2118008D2D5790A8004790AC283
:10055100D5E54A047002F54AE4FAFDFEFF1203B143
:10056100FC7B08200A131203B1FD7B1030090A122B
:1005710003B1FE1203B1FF7B20EC3382D592D5503B
:1005810013C3E43009069FFFE49EFEE4200A039DA5
:10059100FDE49CFCE4CBF8C20AEC700CCFCECDCCD0
:1005A100E824F8F870F38017C3EF33FFEE33FEED64
:1005B10033FDEC33FCEB33FB994002FB0FD8E9EB45
:1005C100300A05F8D0E0C448B20AC0E00AEC4D4E4A
:1005D1004F78207B0070C2EAB54A0040BCC0E012EF
:1005E1000646D0F0D0E0200A04C4C0E0C4B20AC07C
:1005F100F01203D5D0F0D5F0EB0204251208D10496
:10060100C253053C5804934C048F4205404F0548A2
:0F0611004405484904A843054E550532460532B5
:100620004505324706EE5004972D049B2E04BE2B41
:10063000049F2304BC2006D72A045748000004B6B0
:100640003F3F3F00790AA2D5200C14300E09B910A3
:10065000020404B9080104A2D5200F0250010420AD
:100660000B68920BB549005034C0E07F20300C1964
:100670007F30A20B720F720E500F12069DC20BC27A
:100680000FC20EC2117F30800F300E03E9C0E0129E
:1006900003EC300E03D0E0F9D0E0B549CC300E17B2
:1006A0007F30B9100C1203EC7F58300D077F788033
:1006B00003B908031203EC300B057F2D0203EC7F16
:1006C000202011F87F2B200FF322920B80CF286E71
:1006D000756C6C2900D20A1203B1300AF8C20A788C
:1006E0004930D50108F60204572D504349581203EA
:1006F000B12403B405004001E49006E9931203DD40
:0D070000743A1203DDD20C75490402053C69
:100A1D00020B59E493A3F8E493A34003F68001F28B
:100A2D0008DFF48029E493A3F85407240CC8C333DA
:100A3D00C4540F4420C8834004F456800146F6DFA9
:100A4D00E4800B0102040810204080900BD8E47E56
:100A5D00019360BCA3FF543F30E509541FFEE4939E
:100A6D00A360010ECF54C025E060A840B8E493A365
:100A7D00FAE493A3F8E493A3C8C582C8CAC583CA90
:100A8D00F0A3C8C582C8CAC583CADFE9DEE780BE48
:010BDB000019
:1008F700BB010689828A83E0225002E722BBFE02FF
:09090700E32289828A83E4932231
:10091000BB010CE58229F582E5833AF583E022509C
:1009200006E92582F8E622BBFE06E92582F8E222E6
:0D093000E58229F582E5833AF583E4932200
:10093D00BB010689828A83F0225002F722BBFE0199
:02094D00F32293
:10094F00FAE6FB0808E6F925F0F618E6CA3AF622A9
:10000300EFB40A07740D12000E740A309811A89900
:10001300B8130CC2983098FDA899C298B811F6305D
:0700230099FDC299F5992235
:00000001FF
